{
  "contractName": "Casino",
  "abi": [
    {
      "constant": true,
      "inputs": [],
      "name": "numberOfBets",
      "outputs": [
        {
          "name": "",
          "type": "uint256"
        }
      ],
      "payable": false,
      "stateMutability": "view",
      "type": "function"
    },
    {
      "constant": true,
      "inputs": [
        {
          "name": "",
          "type": "address"
        }
      ],
      "name": "playerInfo",
      "outputs": [
        {
          "name": "amountBet",
          "type": "uint256"
        },
        {
          "name": "numberSelected",
          "type": "uint256"
        }
      ],
      "payable": false,
      "stateMutability": "view",
      "type": "function"
    },
    {
      "constant": true,
      "inputs": [],
      "name": "owner",
      "outputs": [
        {
          "name": "",
          "type": "address"
        }
      ],
      "payable": false,
      "stateMutability": "view",
      "type": "function"
    },
    {
      "constant": true,
      "inputs": [],
      "name": "minimumBet",
      "outputs": [
        {
          "name": "",
          "type": "uint256"
        }
      ],
      "payable": false,
      "stateMutability": "view",
      "type": "function"
    },
    {
      "constant": true,
      "inputs": [],
      "name": "maxAmountOfBets",
      "outputs": [
        {
          "name": "",
          "type": "uint256"
        }
      ],
      "payable": false,
      "stateMutability": "view",
      "type": "function"
    },
    {
      "constant": true,
      "inputs": [
        {
          "name": "",
          "type": "uint256"
        }
      ],
      "name": "players",
      "outputs": [
        {
          "name": "",
          "type": "address"
        }
      ],
      "payable": false,
      "stateMutability": "view",
      "type": "function"
    },
    {
      "constant": true,
      "inputs": [],
      "name": "totalBet",
      "outputs": [
        {
          "name": "",
          "type": "uint256"
        }
      ],
      "payable": false,
      "stateMutability": "view",
      "type": "function"
    },
    {
      "inputs": [
        {
          "name": "_minimumBet",
          "type": "uint256"
        }
      ],
      "payable": false,
      "stateMutability": "nonpayable",
      "type": "constructor"
    },
    {
      "payable": true,
      "stateMutability": "payable",
      "type": "fallback"
    },
    {
      "constant": false,
      "inputs": [],
      "name": "kill",
      "outputs": [],
      "payable": false,
      "stateMutability": "nonpayable",
      "type": "function"
    },
    {
      "constant": true,
      "inputs": [
        {
          "name": "player",
          "type": "address"
        }
      ],
      "name": "checkPlayerExist",
      "outputs": [
        {
          "name": "",
          "type": "bool"
        }
      ],
      "payable": false,
      "stateMutability": "view",
      "type": "function"
    },
    {
      "constant": false,
      "inputs": [
        {
          "name": "numberSelected",
          "type": "uint256"
        }
      ],
      "name": "bet",
      "outputs": [],
      "payable": true,
      "stateMutability": "payable",
      "type": "function"
    },
    {
      "constant": false,
      "inputs": [],
      "name": "generateNumberWinner",
      "outputs": [
        {
          "name": "",
          "type": "uint256"
        }
      ],
      "payable": false,
      "stateMutability": "nonpayable",
      "type": "function"
    },
    {
      "constant": false,
      "inputs": [],
      "name": "resetData",
      "outputs": [],
      "payable": false,
      "stateMutability": "nonpayable",
      "type": "function"
    },
    {
      "constant": false,
      "inputs": [
        {
          "name": "numberWinner",
          "type": "uint256"
        }
      ],
      "name": "distributePrizes",
      "outputs": [
        {
          "name": "",
          "type": "uint256"
        }
      ],
      "payable": false,
      "stateMutability": "nonpayable",
      "type": "function"
    },
    {
      "constant": true,
      "inputs": [
        {
          "name": "playerAddress",
          "type": "address"
        }
      ],
      "name": "getPlayerInfo",
      "outputs": [
        {
          "name": "",
          "type": "uint256"
        },
        {
          "name": "",
          "type": "uint256"
        }
      ],
      "payable": false,
      "stateMutability": "view",
      "type": "function"
    },
    {
      "constant": true,
      "inputs": [],
      "name": "balanceOFCS",
      "outputs": [
        {
          "name": "",
          "type": "uint256"
        }
      ],
      "payable": false,
      "stateMutability": "view",
      "type": "function"
    },
    {
      "constant": true,
      "inputs": [],
      "name": "getOwner",
      "outputs": [
        {
          "name": "",
          "type": "address"
        }
      ],
      "payable": false,
      "stateMutability": "view",
      "type": "function"
    },
    {
      "constant": true,
      "inputs": [
        {
          "name": "index",
          "type": "uint256"
        }
      ],
      "name": "getPlayer",
      "outputs": [
        {
          "name": "",
          "type": "address"
        }
      ],
      "payable": false,
      "stateMutability": "view",
      "type": "function"
    },
    {
      "constant": false,
      "inputs": [],
      "name": "sendContractBalanceToOwner",
      "outputs": [],
      "payable": true,
      "stateMutability": "payable",
      "type": "function"
    }
  ],
  "bytecode": "0x6080604052606460045534801561001557600080fd5b5060405160208061108d83398101806040528101908080519060200190929190505050336000806101000a81548173ffffffffffffffffffffffffffffffffffffffff021916908373ffffffffffffffffffffffffffffffffffffffff16021790555060008114151561008a57806001819055505b50610ff38061009a6000396000f3006080604052600436106100fc576000357c0100000000000000000000000000000000000000000000000000000000900463ffffffff1680630a50e361146100fe5780632ca8c6d31461012957806341c0e1b514610154578063478c4e0e1461016b57806349a53dd2146101825780634b114691146101dd578063593284011461023b5780636ca3fc3b146102995780637365870b146102da578063893d20e8146102fa5780638da5cb5b14610351578063b137d629146103a8578063c38a8afd146103b2578063cdcd975b146103dd578063e08a96cd14610408578063e55ae4e814610433578063f71d96cb146104a0578063fe5e18531461050d575b005b34801561010a57600080fd5b50610113610538565b6040518082815260200191505060405180910390f35b34801561013557600080fd5b5061013e610550565b6040518082815260200191505060405180910390f35b34801561016057600080fd5b50610169610556565b005b34801561017757600080fd5b506101806105e7565b005b34801561018e57600080fd5b506101c3600480360381019080803573ffffffffffffffffffffffffffffffffffffffff169060200190929190505050610609565b604051808215151515815260200191505060405180910390f35b3480156101e957600080fd5b5061021e600480360381019080803573ffffffffffffffffffffffffffffffffffffffff1690602001909291905050506106ac565b604051808381526020018281526020019250505060405180910390f35b34801561024757600080fd5b5061027c600480360381019080803573ffffffffffffffffffffffffffffffffffffffff1690602001909291905050506106d0565b604051808381526020018281526020019250505060405180910390f35b3480156102a557600080fd5b506102c460048036038101908080359060200190929190505050610762565b6040518082815260200191505060405180910390f35b6102f860048036038101908080359060200190929190505050610a72565b005b34801561030657600080fd5b5061030f610d7b565b604051808273ffffffffffffffffffffffffffffffffffffffff1673ffffffffffffffffffffffffffffffffffffffff16815260200191505060405180910390f35b34801561035d57600080fd5b50610366610da4565b604051808273ffffffffffffffffffffffffffffffffffffffff1673ffffffffffffffffffffffffffffffffffffffff16815260200191505060405180910390f35b6103b0610dc9565b005b3480156103be57600080fd5b506103c7610ea0565b6040518082815260200191505060405180910390f35b3480156103e957600080fd5b506103f2610ea6565b6040518082815260200191505060405180910390f35b34801561041457600080fd5b5061041d610ec5565b6040518082815260200191505060405180910390f35b34801561043f57600080fd5b5061045e60048036038101908080359060200190929190505050610ecb565b604051808273ffffffffffffffffffffffffffffffffffffffff1673ffffffffffffffffffffffffffffffffffffffff16815260200191505060405180910390f35b3480156104ac57600080fd5b506104cb60048036038101908080359060200190929190505050610f0e565b604051808273ffffffffffffffffffffffffffffffffffffffff1673ffffffffffffffffffffffffffffffffffffffff16815260200191505060405180910390f35b34801561051957600080fd5b50610522610f4c565b6040518082815260200191505060405180910390f35b6000806002905061054881610762565b508091505090565b60035481565b6000809054906101000a900473ffffffffffffffffffffffffffffffffffffffff1673ffffffffffffffffffffffffffffffffffffffff163373ffffffffffffffffffffffffffffffffffffffff1614156105e5576000809054906101000a900473ffffffffffffffffffffffffffffffffffffffff1673ffffffffffffffffffffffffffffffffffffffff16ff5b565b60006005816105f69190610f52565b5060006002819055506000600381905550565b600080600090505b6005805490508110156106a1578273ffffffffffffffffffffffffffffffffffffffff1660058281548110151561064457fe5b9060005260206000200160009054906101000a900473ffffffffffffffffffffffffffffffffffffffff1673ffffffffffffffffffffffffffffffffffffffff16141561069457600191506106a6565b8080600101915050610611565b600091505b50919050565b60066020528060005260406000206000915090508060000154908060010154905082565b600080600660008473ffffffffffffffffffffffffffffffffffffffff1673ffffffffffffffffffffffffffffffffffffffff16815260200190815260200160002060000154600660008573ffffffffffffffffffffffffffffffffffffffff1673ffffffffffffffffffffffffffffffffffffffff1681526020019081526020016000206001015491509150915091565b600061076c610f7e565b6000806000806000809450600093505b6005805490508410156108bd5760058481548110151561079857fe5b9060005260206000200160009054906101000a900473ffffffffffffffffffffffffffffffffffffffff16925087600660008573ffffffffffffffffffffffffffffffffffffffff1673ffffffffffffffffffffffffffffffffffffffff16815260200190815260200160002060010154141561085e5782868660648110151561081e57fe5b602002019073ffffffffffffffffffffffffffffffffffffffff16908173ffffffffffffffffffffffffffffffffffffffff168152505084806001019550505b600660008473ffffffffffffffffffffffffffffffffffffffff1673ffffffffffffffffffffffffffffffffffffffff16815260200190815260200160002060008082016000905560018201600090555050838060010194505061077c565b6000851415610931576000809054906101000a900473ffffffffffffffffffffffffffffffffffffffff1673ffffffffffffffffffffffffffffffffffffffff166108fc6002549081150290604051600060405180830381858888f1935050505015801561092f573d6000803e3d6000fd5b505b60006005816109409190610f52565b50606460025481151561094f57fe5b049150600090505b84811015610a5f57858160648110151561096d57fe5b602002015173ffffffffffffffffffffffffffffffffffffffff16600102600019168560010260405180826000191660001916815260200191505060405180910390a1600073ffffffffffffffffffffffffffffffffffffffff1686826064811015156109d657fe5b602002015173ffffffffffffffffffffffffffffffffffffffff16141515610a52578581606481101515610a0657fe5b602002015173ffffffffffffffffffffffffffffffffffffffff166108fc839081150290604051600060405180830381858888f19350505050158015610a50573d6000803e3d6000fd5b505b8080600101915050610957565b610a676105e7565b505050505050919050565b610a7b33610609565b151515610b16576040517f08c379a00000000000000000000000000000000000000000000000000000000081526004018080602001828103825260268152602001807fd092d18b20d183d0b6d0b520d0bfd180d0bed0b3d0bed0bbd0bed181d0bed0b281526020017fd0b0d0bbd0b8000000000000000000000000000000000000000000000000000081525060400191505060405180910390fd5b60018110158015610b285750600a8111155b1515610bc2576040517f08c379a000000000000000000000000000000000000000000000000000000000815260040180806020018281038252603d8152602001807fd092d18b20d0b2d18bd188d0bbd0b820d0b7d0b020d0b3d180d0b0d0bdd0b8d181526020017f86d18320d0b2d18bd0b1d0bed180d0b020d0bdd0bed0bcd0b5d180d0b000000081525060400191505060405180910390fd5b6001543410151515610c62576040517f08c379a00000000000000000000000000000000000000000000000000000000081526004018080602001828103825260358152602001807fd092d0b0d188d0b020d181d182d0b0d0b2d0bad0b020d0bdd0b8d0b6d0b520d081526020017fbcd0b8d0bdd0b8d0bcd0b0d0bbd18cd0bdd0bed0b9000000000000000000000081525060400191505060405180910390fd5b34600660003373ffffffffffffffffffffffffffffffffffffffff1673ffffffffffffffffffffffffffffffffffffffff1681526020019081526020016000206000018190555080600660003373ffffffffffffffffffffffffffffffffffffffff1673ffffffffffffffffffffffffffffffffffffffff1681526020019081526020016000206001018190555060036000815480929190600101919050555060053390806001815401808255809150509060018203906000526020600020016000909192909190916101000a81548173ffffffffffffffffffffffffffffffffffffffff021916908373ffffffffffffffffffffffffffffffffffffffff160217905550503460026000828254019250508190555050565b60008060009054906101000a900473ffffffffffffffffffffffffffffffffffffffff16905090565b6000809054906101000a900473ffffffffffffffffffffffffffffffffffffffff1681565b3373ffffffffffffffffffffffffffffffffffffffff166000809054906101000a900473ffffffffffffffffffffffffffffffffffffffff1673ffffffffffffffffffffffffffffffffffffffff161415610e9e576000809054906101000a900473ffffffffffffffffffffffffffffffffffffffff1673ffffffffffffffffffffffffffffffffffffffff166108fc3073ffffffffffffffffffffffffffffffffffffffff16319081150290604051600060405180830381858888f19350505050158015610e9c573d6000803e3d6000fd5b505b565b60015481565b60003073ffffffffffffffffffffffffffffffffffffffff1631905090565b60045481565b6000600582815481101515610edc57fe5b9060005260206000200160009054906101000a900473ffffffffffffffffffffffffffffffffffffffff169050919050565b600581815481101515610f1d57fe5b906000526020600020016000915054906101000a900473ffffffffffffffffffffffffffffffffffffffff1681565b60025481565b815481835581811115610f7957818360005260206000209182019101610f789190610fa2565b5b505050565b610c8060405190810160405280606490602082028038833980820191505090505090565b610fc491905b80821115610fc0576000816000905550600101610fa8565b5090565b905600a165627a7a72305820871da4a12508d3a0af9a37fa0f6f90fa1d28f35b8eb0bf19e638e16fc6265dfa0029",
  "source": "pragma solidity ^0.4.22;\n\ncontract Casino {\n   address public owner;\n   uint256 public minimumBet;\n   uint256 public totalBet;\n   uint256 public numberOfBets;\n   uint256 public maxAmountOfBets = 100;\n   address[] public players;\n\n   struct Player { \n     uint256 amountBet; \n     uint256 numberSelected;\n   }\n\n   mapping (address => Player) public playerInfo;\n\n   function() public payable {}\n\n   constructor(uint256 _minimumBet) public {\n      owner = msg.sender;\n\n      if(_minimumBet != 0) minimumBet = _minimumBet;\n   }\n\n   function kill() public {\n      if(msg.sender == owner) selfdestruct(owner);\n   }\n\n    function checkPlayerExist(address player) public constant returns( bool ) {\n      for(uint256 i = 0; i < players.length; i++) {\n        if(players[i] == player) return true;\n      }\n        return false;\n    }\n\n    function bet(uint256 numberSelected) public payable {\n      require(!checkPlayerExist(msg.sender), \"Вы уже проголосовали\");\n      require(numberSelected >= 1 && numberSelected <= 10, \"Вы вышли за границу выбора номера\");\n      require(msg.value >= minimumBet, \"Ваша ставка ниже минимальной\");\n\n      playerInfo[msg.sender].amountBet = msg.value;\n      playerInfo[msg.sender].numberSelected = numberSelected;\n      numberOfBets++;\n      players.push(msg.sender);\n      totalBet += msg.value;\n    }\n\n   function generateNumberWinner() public returns(uint256) {\n     uint256 numberGenerated = 2;\n    \n     distributePrizes(numberGenerated);\n\n     return( numberGenerated );\n   }\n\n  function resetData() public {\n    players.length = 0; // Delete all the players array\n    totalBet = 0;\n    numberOfBets = 0;\n  }\n\n   function distributePrizes(uint256 numberWinner) public returns(uint256){\n    address[100] memory winners;\n    uint256 count = 0;\n\n    for(uint256 i = 0; i < players.length; i++) {\n      address playerAddress = players[i];\n      if(playerInfo[playerAddress].numberSelected == numberWinner) {\n        winners[count] = playerAddress;\n        count++;\n      }\n      delete playerInfo[playerAddress];\n    }\n\n    if(count == 0){\n      owner.transfer(totalBet);\n    }\n    \n    players.length = 0;\n\n    uint256 winnerEtherAmount = totalBet / winners.length; \n\n    for(uint256 j = 0; j < count; j++) {\n       log1(\n        bytes32(uint256(count)),\n        bytes32(address(winners[j]))\n    );\n    \n      if(winners[j] != address(0))\n        winners[j].transfer(winnerEtherAmount);\n    }\n    resetData();\n   }\n\n  function getPlayerInfo(address playerAddress) public view returns (uint256, uint256) {\n    return (playerInfo[playerAddress].amountBet, playerInfo[playerAddress].numberSelected);\n  }\n\n  function balanceOFCS() public view returns(uint256) {\n    return address(this).balance;\n  }\n\n  function getOwner() public view returns(address) {\n    return owner;\n  }\n\n  function getPlayer(uint256 index) public view returns(address) {\n    return ( players[index] );\n  }\n\n  function sendContractBalanceToOwner() public payable {\n    if( owner == msg.sender ) {\n      owner.transfer(address(this).balance);\n    }\n  }\n\n}",
  "sourcePath": "C:\\Users\\I\\Desktop\\projects\\Ethir\\Chairity\\contracts\\Casino.sol",
  "compiler": {
    "name": "solc",
    "version": "0.4.24+commit.e67f0147.Emscripten.clang"
  },
  "schemaVersion": "2.0.1",
  "updatedAt": "2018-08-08T11:01:29.029Z"
}