{
  "contractName": "Casino",
  "abi": [
    {
      "constant": true,
      "inputs": [],
      "name": "numberOfBets",
      "outputs": [
        {
          "name": "",
          "type": "uint256"
        }
      ],
      "payable": false,
      "stateMutability": "view",
      "type": "function"
    },
    {
      "constant": true,
      "inputs": [
        {
          "name": "",
          "type": "address"
        }
      ],
      "name": "playerInfo",
      "outputs": [
        {
          "name": "amountBet",
          "type": "uint256"
        },
        {
          "name": "numberSelected",
          "type": "uint256"
        }
      ],
      "payable": false,
      "stateMutability": "view",
      "type": "function"
    },
    {
      "constant": true,
      "inputs": [],
      "name": "owner",
      "outputs": [
        {
          "name": "",
          "type": "address"
        }
      ],
      "payable": false,
      "stateMutability": "view",
      "type": "function"
    },
    {
      "constant": true,
      "inputs": [],
      "name": "minimumBet",
      "outputs": [
        {
          "name": "",
          "type": "uint256"
        }
      ],
      "payable": false,
      "stateMutability": "view",
      "type": "function"
    },
    {
      "constant": true,
      "inputs": [],
      "name": "maxAmountOfBets",
      "outputs": [
        {
          "name": "",
          "type": "uint256"
        }
      ],
      "payable": false,
      "stateMutability": "view",
      "type": "function"
    },
    {
      "constant": true,
      "inputs": [
        {
          "name": "",
          "type": "uint256"
        }
      ],
      "name": "players",
      "outputs": [
        {
          "name": "",
          "type": "address"
        }
      ],
      "payable": false,
      "stateMutability": "view",
      "type": "function"
    },
    {
      "constant": true,
      "inputs": [],
      "name": "totalBet",
      "outputs": [
        {
          "name": "",
          "type": "uint256"
        }
      ],
      "payable": false,
      "stateMutability": "view",
      "type": "function"
    },
    {
      "inputs": [
        {
          "name": "_minimumBet",
          "type": "uint256"
        }
      ],
      "payable": false,
      "stateMutability": "nonpayable",
      "type": "constructor"
    },
    {
      "payable": true,
      "stateMutability": "payable",
      "type": "fallback"
    },
    {
      "constant": false,
      "inputs": [],
      "name": "kill",
      "outputs": [],
      "payable": false,
      "stateMutability": "nonpayable",
      "type": "function"
    },
    {
      "constant": true,
      "inputs": [
        {
          "name": "player",
          "type": "address"
        }
      ],
      "name": "checkPlayerExist",
      "outputs": [
        {
          "name": "",
          "type": "bool"
        }
      ],
      "payable": false,
      "stateMutability": "view",
      "type": "function"
    },
    {
      "constant": false,
      "inputs": [
        {
          "name": "numberSelected",
          "type": "uint256"
        }
      ],
      "name": "bet",
      "outputs": [],
      "payable": true,
      "stateMutability": "payable",
      "type": "function"
    },
    {
      "constant": false,
      "inputs": [],
      "name": "generateNumberWinner",
      "outputs": [],
      "payable": false,
      "stateMutability": "nonpayable",
      "type": "function"
    },
    {
      "constant": false,
      "inputs": [],
      "name": "resetData",
      "outputs": [],
      "payable": false,
      "stateMutability": "nonpayable",
      "type": "function"
    },
    {
      "constant": false,
      "inputs": [
        {
          "name": "numberWinner",
          "type": "uint256"
        }
      ],
      "name": "distributePrizes",
      "outputs": [],
      "payable": false,
      "stateMutability": "nonpayable",
      "type": "function"
    }
  ],
  "bytecode": "0x6080604052606460045534801561001557600080fd5b50604051602080610a7383398101806040528101908080519060200190929190505050336000806101000a81548173ffffffffffffffffffffffffffffffffffffffff021916908373ffffffffffffffffffffffffffffffffffffffff16021790555060008114151561008a57806001819055505b506109d98061009a6000396000f3006080604052600436106100c5576000357c0100000000000000000000000000000000000000000000000000000000900463ffffffff1680630a50e361146100c75780632ca8c6d3146100de57806341c0e1b514610109578063478c4e0e1461012057806349a53dd2146101375780634b114691146101925780636ca3fc3b146101f05780637365870b1461021d5780638da5cb5b1461023d578063c38a8afd14610294578063e08a96cd146102bf578063f71d96cb146102ea578063fe5e185314610357575b005b3480156100d357600080fd5b506100dc610382565b005b3480156100ea57600080fd5b506100f36103a2565b6040518082815260200191505060405180910390f35b34801561011557600080fd5b5061011e6103a8565b005b34801561012c57600080fd5b50610135610439565b005b34801561014357600080fd5b50610178600480360381019080803573ffffffffffffffffffffffffffffffffffffffff16906020019092919050505061045b565b604051808215151515815260200191505060405180910390f35b34801561019e57600080fd5b506101d3600480360381019080803573ffffffffffffffffffffffffffffffffffffffff1690602001909291905050506104fe565b604051808381526020018281526020019250505060405180910390f35b3480156101fc57600080fd5b5061021b60048036038101908080359060200190929190505050610522565b005b61023b60048036038101908080359060200190929190505050610767565b005b34801561024957600080fd5b506102526108c3565b604051808273ffffffffffffffffffffffffffffffffffffffff1673ffffffffffffffffffffffffffffffffffffffff16815260200191505060405180910390f35b3480156102a057600080fd5b506102a96108e8565b6040518082815260200191505060405180910390f35b3480156102cb57600080fd5b506102d46108ee565b6040518082815260200191505060405180910390f35b3480156102f657600080fd5b50610315600480360381019080803590602001909291905050506108f4565b604051808273ffffffffffffffffffffffffffffffffffffffff1673ffffffffffffffffffffffffffffffffffffffff16815260200191505060405180910390f35b34801561036357600080fd5b5061036c610932565b6040518082815260200191505060405180910390f35b60006001600a4381151561039257fe5b0601905061039f81610522565b50565b60035481565b6000809054906101000a900473ffffffffffffffffffffffffffffffffffffffff1673ffffffffffffffffffffffffffffffffffffffff163373ffffffffffffffffffffffffffffffffffffffff161415610437576000809054906101000a900473ffffffffffffffffffffffffffffffffffffffff1673ffffffffffffffffffffffffffffffffffffffff16ff5b565b60006005816104489190610938565b5060006002819055506000600381905550565b600080600090505b6005805490508110156104f3578273ffffffffffffffffffffffffffffffffffffffff1660058281548110151561049657fe5b9060005260206000200160009054906101000a900473ffffffffffffffffffffffffffffffffffffffff1673ffffffffffffffffffffffffffffffffffffffff1614156104e657600191506104f8565b8080600101915050610463565b600091505b50919050565b60066020528060005260406000206000915090508060000154908060010154905082565b61052a610964565b6000806000806000809450600093505b6005805490508410156106795760058481548110151561055657fe5b9060005260206000200160009054906101000a900473ffffffffffffffffffffffffffffffffffffffff16925086600660008573ffffffffffffffffffffffffffffffffffffffff1673ffffffffffffffffffffffffffffffffffffffff16815260200190815260200160002060010154141561061a578286868060010197506064811015156105e257fe5b602002019073ffffffffffffffffffffffffffffffffffffffff16908173ffffffffffffffffffffffffffffffffffffffff16815250505b600660008473ffffffffffffffffffffffffffffffffffffffff1673ffffffffffffffffffffffffffffffffffffffff16815260200190815260200160002060008082016000905560018201600090555050838060010194505061053a565b60006005816106889190610938565b50606460025481151561069757fe5b049150600090505b8481101561075657600073ffffffffffffffffffffffffffffffffffffffff1686826064811015156106cd57fe5b602002015173ffffffffffffffffffffffffffffffffffffffff161415156107495785816064811015156106fd57fe5b602002015173ffffffffffffffffffffffffffffffffffffffff166108fc839081150290604051600060405180830381858888f19350505050158015610747573d6000803e3d6000fd5b505b808060010191505061069f565b61075e610439565b50505050505050565b6107703361045b565b15151561077c57600080fd5b6001811015801561078e5750600a8111155b151561079957600080fd5b60015434101515156107aa57600080fd5b34600660003373ffffffffffffffffffffffffffffffffffffffff1673ffffffffffffffffffffffffffffffffffffffff1681526020019081526020016000206000018190555080600660003373ffffffffffffffffffffffffffffffffffffffff1673ffffffffffffffffffffffffffffffffffffffff1681526020019081526020016000206001018190555060036000815480929190600101919050555060053390806001815401808255809150509060018203906000526020600020016000909192909190916101000a81548173ffffffffffffffffffffffffffffffffffffffff021916908373ffffffffffffffffffffffffffffffffffffffff160217905550503460026000828254019250508190555050565b6000809054906101000a900473ffffffffffffffffffffffffffffffffffffffff1681565b60015481565b60045481565b60058181548110151561090357fe5b906000526020600020016000915054906101000a900473ffffffffffffffffffffffffffffffffffffffff1681565b60025481565b81548183558181111561095f5781836000526020600020918201910161095e9190610988565b5b505050565b610c8060405190810160405280606490602082028038833980820191505090505090565b6109aa91905b808211156109a657600081600090555060010161098e565b5090565b905600a165627a7a7230582002682a1d67b211a46449444da73bd190cb9bcddecafaeb4515260cb67b77a5320029",
  "source": "pragma solidity ^0.4.22;\n\ncontract Casino {\n   address public owner;\n   uint256 public minimumBet;\n   uint256 public totalBet;\n   uint256 public numberOfBets;\n   uint256 public maxAmountOfBets = 100;\n   address[] public players;\n\n   struct Player { \n     uint256 amountBet; \n     uint256 numberSelected;\n   }\n\n   mapping (address => Player) public playerInfo;\n\n   function() public payable {}\n\n   constructor(uint256 _minimumBet) public {\n      owner = msg.sender;\n\n      if(_minimumBet != 0) minimumBet = _minimumBet;\n   }\n\n   function kill() public {\n      if(msg.sender == owner) selfdestruct(owner);\n   }\n\n    function checkPlayerExist(address player) public constant returns( bool ) {\n      for(uint256 i = 0; i < players.length; i++) {\n        if(players[i] == player) return true;\n      }\n        return false;\n    }\n\n    function bet(uint256 numberSelected) public payable {\n      require(!checkPlayerExist(msg.sender));\n      require(numberSelected >= 1 && numberSelected <= 10);\n      require(msg.value >= minimumBet);\n\n      playerInfo[msg.sender].amountBet = msg.value;\n      playerInfo[msg.sender].numberSelected = numberSelected;\n      numberOfBets++;\n      players.push(msg.sender);\n      totalBet += msg.value;\n    }\n\n   function generateNumberWinner() public {\n     uint256 numberGenerated = block.number % 10 + 1;\n\n     distributePrizes(numberGenerated);\n   }\n\n  function resetData() public {\n    players.length = 0; // Delete all the players array\n    totalBet = 0;\n    numberOfBets = 0;\n  }\n\n   function distributePrizes(uint256 numberWinner) public {\n    address[100] memory winners;\n    uint256 count = 0;\n\n    for(uint256 i = 0; i < players.length; i++) {\n      address playerAddress = players[i];\n      if(playerInfo[playerAddress].numberSelected == numberWinner) {\n        winners[count++] = playerAddress;\n      }\n      delete playerInfo[playerAddress];\n    }\n    players.length = 0;\n\n    uint256 winnerEtherAmount = totalBet / winners.length; \n\n    for(uint256 j = 0; j < count; j++) {\n      if(winners[j] != address(0))\n        winners[j].transfer(winnerEtherAmount);\n    }\n    resetData();\n   }\n}",
  "sourcePath": "C:\\Users\\I\\Desktop\\projects\\Ethir\\Chairity\\contracts\\Casino.sol",
  "compiler": {
    "name": "solc",
    "version": "0.4.24+commit.e67f0147.Emscripten.clang"
  },
  "schemaVersion": "2.0.1",
  "updatedAt": "2018-08-02T15:25:51.828Z"
}