{
  "contractName": "Rullete",
  "abi": [
    {
      "constant": true,
      "inputs": [],
      "name": "MAX_PLAYERS_COUNT",
      "outputs": [
        {
          "name": "",
          "type": "uint256"
        }
      ],
      "payable": false,
      "stateMutability": "view",
      "type": "function"
    },
    {
      "constant": true,
      "inputs": [
        {
          "name": "",
          "type": "uint256"
        }
      ],
      "name": "playersId",
      "outputs": [
        {
          "name": "",
          "type": "address"
        }
      ],
      "payable": false,
      "stateMutability": "view",
      "type": "function"
    },
    {
      "constant": true,
      "inputs": [
        {
          "name": "",
          "type": "address"
        }
      ],
      "name": "players",
      "outputs": [
        {
          "name": "name",
          "type": "string"
        },
        {
          "name": "voted",
          "type": "bool"
        },
        {
          "name": "bet",
          "type": "uint256"
        },
        {
          "name": "betTo",
          "type": "uint256"
        }
      ],
      "payable": false,
      "stateMutability": "view",
      "type": "function"
    },
    {
      "inputs": [],
      "payable": false,
      "stateMutability": "nonpayable",
      "type": "constructor"
    },
    {
      "anonymous": false,
      "inputs": [
        {
          "indexed": false,
          "name": "name",
          "type": "string"
        }
      ],
      "name": "PlayerEnter",
      "type": "event"
    },
    {
      "anonymous": false,
      "inputs": [
        {
          "indexed": false,
          "name": "winNumber",
          "type": "uint256"
        }
      ],
      "name": "GameEnd",
      "type": "event"
    },
    {
      "anonymous": false,
      "inputs": [],
      "name": "GameStart",
      "type": "event"
    },
    {
      "constant": false,
      "inputs": [
        {
          "name": "name",
          "type": "string"
        }
      ],
      "name": "addPlayer",
      "outputs": [],
      "payable": false,
      "stateMutability": "nonpayable",
      "type": "function"
    },
    {
      "constant": true,
      "inputs": [
        {
          "name": "winNumber",
          "type": "uint256"
        }
      ],
      "name": "countWinners",
      "outputs": [
        {
          "name": "",
          "type": "uint256"
        }
      ],
      "payable": false,
      "stateMutability": "view",
      "type": "function"
    },
    {
      "constant": false,
      "inputs": [],
      "name": "calculateWinner",
      "outputs": [
        {
          "name": "",
          "type": "address[]"
        }
      ],
      "payable": false,
      "stateMutability": "nonpayable",
      "type": "function"
    },
    {
      "constant": false,
      "inputs": [
        {
          "name": "_betNumber",
          "type": "uint256"
        }
      ],
      "name": "bet",
      "outputs": [],
      "payable": false,
      "stateMutability": "nonpayable",
      "type": "function"
    },
    {
      "constant": true,
      "inputs": [],
      "name": "getPalyersCount",
      "outputs": [
        {
          "name": "",
          "type": "uint256"
        }
      ],
      "payable": false,
      "stateMutability": "view",
      "type": "function"
    },
    {
      "constant": true,
      "inputs": [],
      "name": "getPlayersIds",
      "outputs": [
        {
          "name": "",
          "type": "address[]"
        }
      ],
      "payable": false,
      "stateMutability": "view",
      "type": "function"
    },
    {
      "constant": true,
      "inputs": [],
      "name": "checkAuth",
      "outputs": [
        {
          "name": "",
          "type": "bool"
        }
      ],
      "payable": false,
      "stateMutability": "view",
      "type": "function"
    }
  ],
  "bytecode": "0x608060405234801561001057600080fd5b50336000806101000a81548173ffffffffffffffffffffffffffffffffffffffff021916908373ffffffffffffffffffffffffffffffffffffffff160217905550610ee0806100606000396000f3006080604052600436106100a4576000357c0100000000000000000000000000000000000000000000000000000000900463ffffffff1680630a980700146100a9578063122ff3b8146100ea5780631b1ba52d1461011557806330e87239146101815780637365870b146101ee5780638f7eb1301461021b578063e2eb41ff14610246578063ea35e8051461031b578063f77e8b8314610387578063ff6cd33e146103f0575b600080fd5b3480156100b557600080fd5b506100d46004803603810190808035906020019092919050505061041f565b6040518082815260200191505060405180910390f35b3480156100f657600080fd5b506100ff6104dc565b6040518082815260200191505060405180910390f35b34801561012157600080fd5b5061012a6104e1565b6040518080602001828103825283818151815260200191508051906020019060200280838360005b8381101561016d578082015181840152602081019050610152565b505050509050019250505060405180910390f35b34801561018d57600080fd5b506101ac6004803603810190808035906020019092919050505061056f565b604051808273ffffffffffffffffffffffffffffffffffffffff1673ffffffffffffffffffffffffffffffffffffffff16815260200191505060405180910390f35b3480156101fa57600080fd5b50610219600480360381019080803590602001909291905050506105ad565b005b34801561022757600080fd5b50610230610765565b6040518082815260200191505060405180910390f35b34801561025257600080fd5b50610287600480360381019080803573ffffffffffffffffffffffffffffffffffffffff169060200190929190505050610772565b604051808060200185151515158152602001848152602001838152602001828103825286818151815260200191508051906020019080838360005b838110156102dd5780820151818401526020810190506102c2565b50505050905090810190601f16801561030a5780820380516001836020036101000a031916815260200191505b509550505050505060405180910390f35b34801561032757600080fd5b50610330610847565b6040518080602001828103825283818151815260200191508051906020019060200280838360005b83811015610373578082015181840152602081019050610358565b505050509050019250505060405180910390f35b34801561039357600080fd5b506103ee600480360381019080803590602001908201803590602001908080601f0160208091040260200160405190810160405280939291908181526020018383808284378201915050505050509192919290505050610b24565b005b3480156103fc57600080fd5b50610405610d61565b604051808215151515815260200191505060405180910390f35b6000806000809150600090505b6001805490508110156104d2576002600060018381548110151561044c57fe5b9060005260206000200160009054906101000a900473ffffffffffffffffffffffffffffffffffffffff1673ffffffffffffffffffffffffffffffffffffffff1673ffffffffffffffffffffffffffffffffffffffff168152602001908152602001600020600301548414156104c55781806001019250505b808060010191505061042c565b8192505050919050565b600281565b6060600180548060200260200160405190810160405280929190818152602001828054801561056557602002820191906000526020600020905b8160009054906101000a900473ffffffffffffffffffffffffffffffffffffffff1673ffffffffffffffffffffffffffffffffffffffff168152602001906001019080831161051b575b5050505050905090565b60018181548110151561057e57fe5b906000526020600020016000915054906101000a900473ffffffffffffffffffffffffffffffffffffffff1681565b60008060009150600090505b600180549050811015610649573373ffffffffffffffffffffffffffffffffffffffff166001828154811015156105ec57fe5b9060005260206000200160009054906101000a900473ffffffffffffffffffffffffffffffffffffffff1673ffffffffffffffffffffffffffffffffffffffff16141561063c5760019150610649565b80806001019150506105b9565b8115156106be576040517f08c379a00000000000000000000000000000000000000000000000000000000081526004018080602001828103825260158152602001807fd092d18b20d0bdd0b520d0b220d0b8d0b3d180d0b5000000000000000000000081525060200191505060405180910390fd5b82600260003373ffffffffffffffffffffffffffffffffffffffff1673ffffffffffffffffffffffffffffffffffffffff168152602001908152602001600020600301819055506001600260003373ffffffffffffffffffffffffffffffffffffffff1673ffffffffffffffffffffffffffffffffffffffff16815260200190815260200160002060010160006101000a81548160ff021916908315150217905550505050565b6000600180549050905090565b6002602052806000526040600020600091509050806000018054600181600116156101000203166002900480601f01602080910402602001604051908101604052809291908181526020018280546001816001161561010002031660029004801561081e5780601f106107f35761010080835404028352916020019161081e565b820191906000526020600020905b81548152906001019060200180831161080157829003601f168201915b5050505050908060010160009054906101000a900460ff16908060020154908060030154905084565b60606000806000606060003373ffffffffffffffffffffffffffffffffffffffff166000809054906101000a900473ffffffffffffffffffffffffffffffffffffffff1673ffffffffffffffffffffffffffffffffffffffff1614151561093c576040517f08c379a000000000000000000000000000000000000000000000000000000000815260040180806020018281038252602d8152602001807fd092d18b20d0bdd0b520d0b2d0bbd0b0d0b4d0b5d0bbd0b5d18620d0bad0bed081526020017fbdd182d180d0b0d0bad182d0b00000000000000000000000000000000000000081525060400191505060405180910390fd5b7f4cf2e2dcdeacb2322843921968cb0e6a97a686594cb0a4f29abb65a7ed65195260405160405180910390a1610970610e06565b945061097b8561041f565b935060009250836040519080825280602002602001820160405280156109b05781602001602082028038833980820191505090505b509150600090505b600180549050811015610ae257600260006001838154811015156109d857fe5b9060005260206000200160009054906101000a900473ffffffffffffffffffffffffffffffffffffffff1673ffffffffffffffffffffffffffffffffffffffff1673ffffffffffffffffffffffffffffffffffffffff16815260200190815260200160002060030154851415610ad557600181815481101515610a5757fe5b9060005260206000200160009054906101000a900473ffffffffffffffffffffffffffffffffffffffff168284815181101515610a9057fe5b9060200190602002019073ffffffffffffffffffffffffffffffffffffffff16908173ffffffffffffffffffffffffffffffffffffffff168152505082806001019350505b80806001019150506109b8565b7f54c9f587fafd6c18bc6208e7bdaf27f84d0ed5230f5fbf11a68d52d5bd9da468856040518082815260200191505060405180910390a1819550505050505090565b600260018054905011151515610ba2576040517f08c379a000000000000000000000000000000000000000000000000000000000815260040180806020018281038252601c8152602001807fd09cd0b5d181d18220d0b1d0bed0bbd18cd188d0b520d0bdd0b5d1820000000081525060200191505060405180910390fd5b60013390806001815401808255809150509060018203906000526020600020016000909192909190916101000a81548173ffffffffffffffffffffffffffffffffffffffff021916908373ffffffffffffffffffffffffffffffffffffffff16021790555050608060405190810160405280828152602001600015158152602001600081526020016000815250600260003373ffffffffffffffffffffffffffffffffffffffff1673ffffffffffffffffffffffffffffffffffffffff1681526020019081526020016000206000820151816000019080519060200190610c8a929190610e0f565b5060208201518160010160006101000a81548160ff02191690831515021790555060408201518160020155606082015181600301559050507fee5af66b5a8d17fbf8319bce78c9802f7639167eb44d1f0efab404d1256c2108816040518080602001828103825283818151815260200191508051906020019080838360005b83811015610d24578082015181840152602081019050610d09565b50505050905090810190601f168015610d515780820380516001836020036101000a031916815260200191505b509250505060405180910390a150565b6000806000809150600090505b600180549050811015610dfe573373ffffffffffffffffffffffffffffffffffffffff16600182815481101515610da157fe5b9060005260206000200160009054906101000a900473ffffffffffffffffffffffffffffffffffffffff1673ffffffffffffffffffffffffffffffffffffffff161415610df15760019150610dfe565b8080600101915050610d6e565b819250505090565b60006002905090565b828054600181600116156101000203166002900490600052602060002090601f016020900481019282601f10610e5057805160ff1916838001178555610e7e565b82800160010185558215610e7e579182015b82811115610e7d578251825591602001919060010190610e62565b5b509050610e8b9190610e8f565b5090565b610eb191905b80821115610ead576000816000905550600101610e95565b5090565b905600a165627a7a72305820383d4816f22cec10015dd1add4744c5f01f0217504275928214e44b28c63960d0029",
  "source": "pragma solidity ^0.4.24;\n\ncontract Rullete {\n\n  address owner; \n  uint public constant MAX_PLAYERS_COUNT = 2;\n  address[] public playersId;\n\n  struct Player {\n    string name;\n    bool voted;\n    uint bet;\n    uint betTo;\n  }\n    \n  mapping(address => Player) public players;\n\n  constructor() public {\n    owner = msg.sender;\n  }\n\n  // Modifiers starts\n  modifier onlyOwner() {\n    require(\n        owner == msg.sender, \n        \"Вы не владелец контракта\"\n    );\n    _;\n  }\n\n  modifier onlyPlayer() {\n    bool isPlayer = false;\n\n    for(uint i = 0; i < playersId.length; i++) {\n      if(playersId[i] == msg.sender) {\n        isPlayer = true;\n        break;\n      }\n    }\n\n    require(\n      isPlayer,\n      \"Вы не в игре\"\n     );\n\n     _;\n  }\n  //Modifiers ends\n\n  event PlayerEnter(string name);\n  event GameEnd(uint winNumber);\n  event GameStart();\n\n  function addPlayer(string name) public {\n    require(\n      playersId.length <= MAX_PLAYERS_COUNT,\n      \"Мест больше нет\"\n    );\n    \n    playersId.push(msg.sender);\n    players[msg.sender] = Player(name, false, 0, 0);\n\n    emit PlayerEnter(name);\n  }\n  \n  function winigNumber() pure internal \n      returns(uint) {\n    return 2;\n  }\n    \n  function countWinners(uint winNumber) public view returns(uint){\n    uint winnersCount = 0;\n    \n    for(uint i = 0; i < playersId.length; i++) {\n        if(winNumber == players[playersId[i]].betTo){\n            winnersCount++;\n        }\n    }\n    \n    return winnersCount;\n  }\n    \n  function calculateWinner() public onlyOwner returns(address[]) {\n    emit GameStart();\n      \n    uint winNumber = winigNumber();\n    uint winnersCount = countWinners(winNumber);\n    \n    uint winIteration = 0;\n    \n    address[] memory winners = new address[](winnersCount);\n    \n    for(uint i = 0; i < playersId.length; i++) {\n        if(winNumber == players[playersId[i]].betTo){\n            winners[winIteration] = playersId[i];\n            winIteration++;\n        }\n    }\n    \n    emit GameEnd(winNumber);\n    return winners;\n  }\n    \n  function bet(uint _betNumber) public onlyPlayer {\n    players[msg.sender].betTo = _betNumber;\n    players[msg.sender].voted = true;\n  }\n  \n  function getPalyersCount() public view returns(uint){\n    return playersId.length;\n  }\n  \n  function getPlayersIds() public view returns(address[]) {\n    return playersId;\n  }\n\n  function checkAuth() public view returns(bool) {\n    bool isPlayer = false;\n\n    for(uint i = 0; i < playersId.length; i++) {\n      if(playersId[i] == msg.sender) {\n        isPlayer = true;\n        break;\n      }\n    }\n\n    return isPlayer;\n  }\n}\n",
  "sourcePath": "C:\\Users\\I\\Desktop\\projects\\Ethir\\Chairity\\contracts\\Rullete.sol",
  "compiler": {
    "name": "solc",
    "version": "0.4.24+commit.e67f0147.Emscripten.clang"
  },
  "schemaVersion": "2.0.1",
  "updatedAt": "2018-08-09T14:02:48.625Z"
}