{
  "contractName": "Rullete",
  "abi": [
    {
      "constant": true,
      "inputs": [],
      "name": "MAX_PLAYERS_COUNT",
      "outputs": [
        {
          "name": "",
          "type": "uint256"
        }
      ],
      "payable": false,
      "stateMutability": "view",
      "type": "function"
    },
    {
      "constant": false,
      "inputs": [
        {
          "name": "myid",
          "type": "bytes32"
        },
        {
          "name": "result",
          "type": "string"
        }
      ],
      "name": "__callback",
      "outputs": [],
      "payable": false,
      "stateMutability": "nonpayable",
      "type": "function"
    },
    {
      "constant": true,
      "inputs": [
        {
          "name": "",
          "type": "uint256"
        }
      ],
      "name": "playersId",
      "outputs": [
        {
          "name": "",
          "type": "address"
        }
      ],
      "payable": false,
      "stateMutability": "view",
      "type": "function"
    },
    {
      "constant": false,
      "inputs": [
        {
          "name": "myid",
          "type": "bytes32"
        },
        {
          "name": "result",
          "type": "string"
        },
        {
          "name": "proof",
          "type": "bytes"
        }
      ],
      "name": "__callback",
      "outputs": [],
      "payable": false,
      "stateMutability": "nonpayable",
      "type": "function"
    },
    {
      "constant": true,
      "inputs": [
        {
          "name": "",
          "type": "address"
        }
      ],
      "name": "players",
      "outputs": [
        {
          "name": "name",
          "type": "string"
        },
        {
          "name": "voted",
          "type": "bool"
        },
        {
          "name": "bet",
          "type": "uint256"
        },
        {
          "name": "betTo",
          "type": "uint256"
        }
      ],
      "payable": false,
      "stateMutability": "view",
      "type": "function"
    },
    {
      "inputs": [],
      "payable": false,
      "stateMutability": "nonpayable",
      "type": "constructor"
    },
    {
      "anonymous": false,
      "inputs": [
        {
          "indexed": false,
          "name": "name",
          "type": "string"
        }
      ],
      "name": "PlayerEnter",
      "type": "event"
    },
    {
      "anonymous": false,
      "inputs": [
        {
          "indexed": false,
          "name": "winNumber",
          "type": "uint256"
        },
        {
          "indexed": false,
          "name": "winners",
          "type": "address[]"
        }
      ],
      "name": "GameEnd",
      "type": "event"
    },
    {
      "anonymous": false,
      "inputs": [],
      "name": "GameStart",
      "type": "event"
    },
    {
      "constant": false,
      "inputs": [
        {
          "name": "name",
          "type": "string"
        }
      ],
      "name": "addPlayer",
      "outputs": [],
      "payable": false,
      "stateMutability": "nonpayable",
      "type": "function"
    },
    {
      "constant": true,
      "inputs": [
        {
          "name": "winNumber",
          "type": "uint256"
        }
      ],
      "name": "countWinners",
      "outputs": [
        {
          "name": "",
          "type": "uint256"
        }
      ],
      "payable": false,
      "stateMutability": "view",
      "type": "function"
    },
    {
      "constant": false,
      "inputs": [],
      "name": "calculateWinner",
      "outputs": [
        {
          "name": "",
          "type": "address[]"
        }
      ],
      "payable": false,
      "stateMutability": "nonpayable",
      "type": "function"
    },
    {
      "constant": false,
      "inputs": [
        {
          "name": "_betNumber",
          "type": "uint256"
        }
      ],
      "name": "bet",
      "outputs": [],
      "payable": false,
      "stateMutability": "nonpayable",
      "type": "function"
    },
    {
      "constant": true,
      "inputs": [],
      "name": "getPalyersCount",
      "outputs": [
        {
          "name": "",
          "type": "uint256"
        }
      ],
      "payable": false,
      "stateMutability": "view",
      "type": "function"
    },
    {
      "constant": true,
      "inputs": [],
      "name": "getPlayersIds",
      "outputs": [
        {
          "name": "",
          "type": "address[]"
        }
      ],
      "payable": false,
      "stateMutability": "view",
      "type": "function"
    },
    {
      "constant": true,
      "inputs": [],
      "name": "checkAuth",
      "outputs": [
        {
          "name": "",
          "type": "bool"
        }
      ],
      "payable": false,
      "stateMutability": "view",
      "type": "function"
    },
    {
      "constant": true,
      "inputs": [],
      "name": "getGameStatus",
      "outputs": [
        {
          "name": "",
          "type": "uint8"
        }
      ],
      "payable": false,
      "stateMutability": "view",
      "type": "function"
    },
    {
      "constant": true,
      "inputs": [],
      "name": "isOwner",
      "outputs": [
        {
          "name": "",
          "type": "bool"
        }
      ],
      "payable": false,
      "stateMutability": "view",
      "type": "function"
    }
  ],
  "bytecode": "0x60806040526000600760006101000a81548160ff0219169083600281111561002357fe5b021790555034801561003457600080fd5b5033600560006101000a81548173ffffffffffffffffffffffffffffffffffffffff021916908373ffffffffffffffffffffffffffffffffffffffff1602179055506111ff806100856000396000f3006080604052600436106100d0576000357c0100000000000000000000000000000000000000000000000000000000900463ffffffff1680630a980700146100d5578063122ff3b8146101165780631b1ba52d1461014157806327dc297e146101ad57806330e8723914610224578063382396ee1461029157806338bbfa50146102ca5780637365870b146103875780638f32d59b146103b45780638f7eb130146103e3578063e2eb41ff1461040e578063ea35e805146104e3578063f77e8b831461054f578063ff6cd33e146105b8575b600080fd5b3480156100e157600080fd5b50610100600480360381019080803590602001909291905050506105e7565b6040518082815260200191505060405180910390f35b34801561012257600080fd5b5061012b6106a4565b6040518082815260200191505060405180910390f35b34801561014d57600080fd5b506101566106a9565b6040518080602001828103825283818151815260200191508051906020019060200280838360005b8381101561019957808201518184015260208101905061017e565b505050509050019250505060405180910390f35b3480156101b957600080fd5b506102226004803603810190808035600019169060200190929190803590602001908201803590602001908080601f0160208091040260200160405190810160405280939291908181526020018383808284378201915050505050509192919290505050610737565b005b34801561023057600080fd5b5061024f6004803603810190808035906020019092919050505061077a565b604051808273ffffffffffffffffffffffffffffffffffffffff1673ffffffffffffffffffffffffffffffffffffffff16815260200191505060405180910390f35b34801561029d57600080fd5b506102a66107b8565b604051808260028111156102b657fe5b60ff16815260200191505060405180910390f35b3480156102d657600080fd5b506103856004803603810190808035600019169060200190929190803590602001908201803590602001908080601f0160208091040260200160405190810160405280939291908181526020018383808284378201915050505050509192919290803590602001908201803590602001908080601f01602080910402602001604051908101604052809392919081815260200183838082843782019150505050505091929192905050506107cf565b005b34801561039357600080fd5b506103b2600480360381019080803590602001909291905050506107d4565b005b3480156103c057600080fd5b506103c961098c565b604051808215151515815260200191505060405180910390f35b3480156103ef57600080fd5b506103f86109f5565b6040518082815260200191505060405180910390f35b34801561041a57600080fd5b5061044f600480360381019080803573ffffffffffffffffffffffffffffffffffffffff169060200190929190505050610a02565b604051808060200185151515158152602001848152602001838152602001828103825286818151815260200191508051906020019080838360005b838110156104a557808201518184015260208101905061048a565b50505050905090810190601f1680156104d25780820380516001836020036101000a031916815260200191505b509550505050505060405180910390f35b3480156104ef57600080fd5b506104f8610ad7565b6040518080602001828103825283818151815260200191508051906020019060200280838360005b8381101561053b578082015181840152602081019050610520565b505050509050019250505060405180910390f35b34801561055b57600080fd5b506105b6600480360381019080803590602001908201803590602001908080601f0160208091040260200160405190810160405280939291908181526020018383808284378201915050505050509192919290505050610e43565b005b3480156105c457600080fd5b506105cd611080565b604051808215151515815260200191505060405180910390f35b6000806000809150600090505b60068054905081101561069a576008600060068381548110151561061457fe5b9060005260206000200160009054906101000a900473ffffffffffffffffffffffffffffffffffffffff1673ffffffffffffffffffffffffffffffffffffffff1673ffffffffffffffffffffffffffffffffffffffff1681526020019081526020016000206003015484141561068d5781806001019250505b80806001019150506105f4565b8192505050919050565b600281565b6060600680548060200260200160405190810160405280929190818152602001828054801561072d57602002820191906000526020600020905b8160009054906101000a900473ffffffffffffffffffffffffffffffffffffffff1673ffffffffffffffffffffffffffffffffffffffff16815260200190600101908083116106e3575b5050505050905090565b610776828260006040519080825280601f01601f1916602001820160405280156107705781602001602082028038833980820191505090505b506107cf565b5050565b60068181548110151561078957fe5b906000526020600020016000915054906101000a900473ffffffffffffffffffffffffffffffffffffffff1681565b6000600760009054906101000a900460ff16905090565b505050565b60008060009150600090505b600680549050811015610870573373ffffffffffffffffffffffffffffffffffffffff1660068281548110151561081357fe5b9060005260206000200160009054906101000a900473ffffffffffffffffffffffffffffffffffffffff1673ffffffffffffffffffffffffffffffffffffffff1614156108635760019150610870565b80806001019150506107e0565b8115156108e5576040517f08c379a00000000000000000000000000000000000000000000000000000000081526004018080602001828103825260158152602001807fd092d18b20d0bdd0b520d0b220d0b8d0b3d180d0b5000000000000000000000081525060200191505060405180910390fd5b82600860003373ffffffffffffffffffffffffffffffffffffffff1673ffffffffffffffffffffffffffffffffffffffff168152602001908152602001600020600301819055506001600860003373ffffffffffffffffffffffffffffffffffffffff1673ffffffffffffffffffffffffffffffffffffffff16815260200190815260200160002060010160006101000a81548160ff021916908315150217905550505050565b6000600560009054906101000a900473ffffffffffffffffffffffffffffffffffffffff1673ffffffffffffffffffffffffffffffffffffffff163373ffffffffffffffffffffffffffffffffffffffff1614156109ed57600190506109f2565b600090505b90565b6000600680549050905090565b6008602052806000526040600020600091509050806000018054600181600116156101000203166002900480601f016020809104026020016040519081016040528092919081815260200182805460018160011615610100020316600290048015610aae5780601f10610a8357610100808354040283529160200191610aae565b820191906000526020600020905b815481529060010190602001808311610a9157829003601f168201915b5050505050908060010160009054906101000a900460ff16908060020154908060030154905084565b60606000806000606060003373ffffffffffffffffffffffffffffffffffffffff16600560009054906101000a900473ffffffffffffffffffffffffffffffffffffffff1673ffffffffffffffffffffffffffffffffffffffff16141515610bcd576040517f08c379a000000000000000000000000000000000000000000000000000000000815260040180806020018281038252602d8152602001807fd092d18b20d0bdd0b520d0b2d0bbd0b0d0b4d0b5d0bbd0b5d18620d0bad0bed081526020017fbdd182d180d0b0d0bad182d0b00000000000000000000000000000000000000081525060400191505060405180910390fd5b7f4cf2e2dcdeacb2322843921968cb0e6a97a686594cb0a4f29abb65a7ed65195260405160405180910390a16001600760006101000a81548160ff02191690836002811115610c1857fe5b0217905550610c25611125565b9450610c30856105e7565b93506000925083604051908082528060200260200182016040528015610c655781602001602082028038833980820191505090505b509150600090505b600680549050811015610d975760086000600683815481101515610c8d57fe5b9060005260206000200160009054906101000a900473ffffffffffffffffffffffffffffffffffffffff1673ffffffffffffffffffffffffffffffffffffffff1673ffffffffffffffffffffffffffffffffffffffff16815260200190815260200160002060030154851415610d8a57600681815481101515610d0c57fe5b9060005260206000200160009054906101000a900473ffffffffffffffffffffffffffffffffffffffff168284815181101515610d4557fe5b9060200190602002019073ffffffffffffffffffffffffffffffffffffffff16908173ffffffffffffffffffffffffffffffffffffffff168152505082806001019350505b8080600101915050610c6d565b6002600760006101000a81548160ff02191690836002811115610db657fe5b02179055507fcfad69aa55bd66ef76c664314087596d39a8c9ae32ed18a2bd8b061fbf4d938085836040518083815260200180602001828103825283818151815260200191508051906020019060200280838360005b83811015610e27578082015181840152602081019050610e0c565b50505050905001935050505060405180910390a1505050505090565b600260068054905011151515610ec1576040517f08c379a000000000000000000000000000000000000000000000000000000000815260040180806020018281038252601c8152602001807fd09cd0b5d181d18220d0b1d0bed0bbd18cd188d0b520d0bdd0b5d1820000000081525060200191505060405180910390fd5b60063390806001815401808255809150509060018203906000526020600020016000909192909190916101000a81548173ffffffffffffffffffffffffffffffffffffffff021916908373ffffffffffffffffffffffffffffffffffffffff16021790555050608060405190810160405280828152602001600015158152602001600081526020016000815250600860003373ffffffffffffffffffffffffffffffffffffffff1673ffffffffffffffffffffffffffffffffffffffff1681526020019081526020016000206000820151816000019080519060200190610fa992919061112e565b5060208201518160010160006101000a81548160ff02191690831515021790555060408201518160020155606082015181600301559050507fee5af66b5a8d17fbf8319bce78c9802f7639167eb44d1f0efab404d1256c2108816040518080602001828103825283818151815260200191508051906020019080838360005b83811015611043578082015181840152602081019050611028565b50505050905090810190601f1680156110705780820380516001836020036101000a031916815260200191505b509250505060405180910390a150565b6000806000809150600090505b60068054905081101561111d573373ffffffffffffffffffffffffffffffffffffffff166006828154811015156110c057fe5b9060005260206000200160009054906101000a900473ffffffffffffffffffffffffffffffffffffffff1673ffffffffffffffffffffffffffffffffffffffff161415611110576001915061111d565b808060010191505061108d565b819250505090565b60006002905090565b828054600181600116156101000203166002900490600052602060002090601f016020900481019282601f1061116f57805160ff191683800117855561119d565b8280016001018555821561119d579182015b8281111561119c578251825591602001919060010190611181565b5b5090506111aa91906111ae565b5090565b6111d091905b808211156111cc5760008160009055506001016111b4565b5090565b905600a165627a7a7230582041d69ac342ab290015a06630e429123d64f40a070c85f2e5a5960a31577959c60029",
  "source": "pragma solidity ^0.4.24;\nimport \"./usingOraclize.sol\";\n\ncontract Rullete is usingOraclize {\n\n  address owner;\n  uint public constant MAX_PLAYERS_COUNT = 2;\n  address[] public playersId;\n\n  struct Player {\n    string name;\n    bool voted;\n    uint bet;\n    uint betTo;\n  }\n\n  enum GameStatuses { Waiting, Started, Ended }\n\n  GameStatuses status = GameStatuses.Waiting;\n\n  mapping(address => Player) public players;\n\n  constructor() public {\n    owner = msg.sender;\n  }\n\n  // Modifiers starts\n  modifier onlyOwner() {\n    require(\n        owner == msg.sender, \n        \"Вы не владелец контракта\"\n    );\n    _;\n  }\n\n  modifier onlyPlayer() {\n    bool isPlayer = false;\n\n    for(uint i = 0; i < playersId.length; i++) {\n      if(playersId[i] == msg.sender) {\n        isPlayer = true;\n        break;\n      }\n    }\n\n    require(\n      isPlayer,\n      \"Вы не в игре\"\n     );\n\n     _;\n  }\n  //Modifiers ends\n\n  event PlayerEnter(string name);\n  event GameEnd(uint winNumber, address[] winners);\n  event GameStart();\n\n  function addPlayer(string name) public {\n    require(\n      playersId.length <= MAX_PLAYERS_COUNT,\n      \"Мест больше нет\"\n    );\n    \n    playersId.push(msg.sender);\n    players[msg.sender] = Player(name, false, 0, 0);\n\n    emit PlayerEnter(name);\n  }\n  \n  function winigNumber() pure internal \n      returns(uint) {\n    return 2;\n  }\n    \n  function countWinners(uint winNumber) public view returns(uint){\n    uint winnersCount = 0;\n    \n    for(uint i = 0; i < playersId.length; i++) {\n        if(winNumber == players[playersId[i]].betTo){\n            winnersCount++;\n        }\n    }\n    \n    return winnersCount;\n  }\n    \n  function calculateWinner() public onlyOwner returns(address[]) {\n    emit GameStart();\n    status = GameStatuses.Started;\n\n    uint winNumber = winigNumber();\n    uint winnersCount = countWinners(winNumber);\n    \n    uint winIteration = 0;\n    \n    address[] memory winners = new address[](winnersCount);\n    \n    for(uint i = 0; i < playersId.length; i++) {\n        if(winNumber == players[playersId[i]].betTo){\n            winners[winIteration] = playersId[i];\n            winIteration++;\n        }\n    }\n    \n    status = GameStatuses.Ended;\n    emit GameEnd(winNumber, winners);\n  }\n    \n  function bet(uint _betNumber) public onlyPlayer {\n    players[msg.sender].betTo = _betNumber;\n    players[msg.sender].voted = true;\n  }\n  \n  function getPalyersCount() public view returns(uint){\n    return playersId.length;\n  }\n  \n  function getPlayersIds() public view returns(address[]) {\n    return playersId;\n  }\n\n  function checkAuth() public view returns(bool) {\n    bool isPlayer = false;\n\n    for(uint i = 0; i < playersId.length; i++) {\n      if(playersId[i] == msg.sender) {\n        isPlayer = true;\n        break;\n      }\n    }\n\n    return isPlayer;\n  }\n\n  function getGameStatus() public view returns(GameStatuses) {\n    return status;\n  }\n\n  function isOwner() public view returns(bool) {\n    if(msg.sender == owner) {\n      return true;\n    } else {\n      return false;\n    }\n  }\n}\n",
  "sourcePath": "C:\\Users\\I\\Desktop\\projects\\Ethir\\Chairity\\contracts\\Rullete.sol",
  "compiler": {
    "name": "solc",
    "version": "0.4.24+commit.e67f0147.Emscripten.clang"
  },
  "schemaVersion": "2.0.1",
  "updatedAt": "2018-08-10T14:42:08.382Z"
}