{
  "contractName": "Rullete",
  "abi": [
    {
      "constant": true,
      "inputs": [],
      "name": "MAX_PLAYERS_COUNT",
      "outputs": [
        {
          "name": "",
          "type": "uint256"
        }
      ],
      "payable": false,
      "stateMutability": "view",
      "type": "function"
    },
    {
      "constant": true,
      "inputs": [
        {
          "name": "",
          "type": "uint256"
        }
      ],
      "name": "playersId",
      "outputs": [
        {
          "name": "",
          "type": "address"
        }
      ],
      "payable": false,
      "stateMutability": "view",
      "type": "function"
    },
    {
      "constant": true,
      "inputs": [],
      "name": "MIN_BET",
      "outputs": [
        {
          "name": "",
          "type": "uint256"
        }
      ],
      "payable": false,
      "stateMutability": "view",
      "type": "function"
    },
    {
      "constant": true,
      "inputs": [
        {
          "name": "",
          "type": "address"
        }
      ],
      "name": "players",
      "outputs": [
        {
          "name": "name",
          "type": "string"
        },
        {
          "name": "voted",
          "type": "bool"
        },
        {
          "name": "bet",
          "type": "string"
        },
        {
          "name": "betTo",
          "type": "string"
        }
      ],
      "payable": false,
      "stateMutability": "view",
      "type": "function"
    },
    {
      "inputs": [],
      "payable": true,
      "stateMutability": "payable",
      "type": "constructor"
    },
    {
      "anonymous": false,
      "inputs": [
        {
          "indexed": false,
          "name": "name",
          "type": "string"
        }
      ],
      "name": "PlayerEnter",
      "type": "event"
    },
    {
      "anonymous": false,
      "inputs": [
        {
          "indexed": false,
          "name": "winNumber",
          "type": "string"
        },
        {
          "indexed": false,
          "name": "winners",
          "type": "address[]"
        }
      ],
      "name": "GameEnd",
      "type": "event"
    },
    {
      "anonymous": false,
      "inputs": [],
      "name": "GameStart",
      "type": "event"
    },
    {
      "anonymous": false,
      "inputs": [
        {
          "indexed": false,
          "name": "currentBalance",
          "type": "string"
        }
      ],
      "name": "Log",
      "type": "event"
    },
    {
      "constant": false,
      "inputs": [
        {
          "name": "name",
          "type": "string"
        }
      ],
      "name": "addPlayer",
      "outputs": [],
      "payable": false,
      "stateMutability": "nonpayable",
      "type": "function"
    },
    {
      "constant": false,
      "inputs": [
        {
          "name": "_queryId",
          "type": "bytes32"
        },
        {
          "name": "_result",
          "type": "string"
        }
      ],
      "name": "__callback",
      "outputs": [],
      "payable": false,
      "stateMutability": "nonpayable",
      "type": "function"
    },
    {
      "constant": false,
      "inputs": [
        {
          "name": "myid",
          "type": "bytes32"
        },
        {
          "name": "result",
          "type": "string"
        },
        {
          "name": "proof",
          "type": "bytes"
        }
      ],
      "name": "__callback",
      "outputs": [],
      "payable": false,
      "stateMutability": "nonpayable",
      "type": "function"
    },
    {
      "constant": false,
      "inputs": [],
      "name": "calculateWinner",
      "outputs": [
        {
          "name": "",
          "type": "address[]"
        }
      ],
      "payable": true,
      "stateMutability": "payable",
      "type": "function"
    },
    {
      "constant": false,
      "inputs": [
        {
          "name": "x",
          "type": "address"
        }
      ],
      "name": "toString",
      "outputs": [
        {
          "name": "",
          "type": "string"
        }
      ],
      "payable": false,
      "stateMutability": "nonpayable",
      "type": "function"
    },
    {
      "constant": false,
      "inputs": [
        {
          "name": "_betNumber",
          "type": "string"
        }
      ],
      "name": "bet",
      "outputs": [],
      "payable": true,
      "stateMutability": "payable",
      "type": "function"
    },
    {
      "constant": true,
      "inputs": [],
      "name": "getPalyersCount",
      "outputs": [
        {
          "name": "",
          "type": "uint256"
        }
      ],
      "payable": false,
      "stateMutability": "view",
      "type": "function"
    },
    {
      "constant": true,
      "inputs": [],
      "name": "getPlayersIds",
      "outputs": [
        {
          "name": "",
          "type": "address[]"
        }
      ],
      "payable": false,
      "stateMutability": "view",
      "type": "function"
    },
    {
      "constant": true,
      "inputs": [],
      "name": "checkAuth",
      "outputs": [
        {
          "name": "",
          "type": "bool"
        }
      ],
      "payable": false,
      "stateMutability": "view",
      "type": "function"
    },
    {
      "constant": true,
      "inputs": [],
      "name": "getGameStatus",
      "outputs": [
        {
          "name": "",
          "type": "uint8"
        }
      ],
      "payable": false,
      "stateMutability": "view",
      "type": "function"
    },
    {
      "constant": true,
      "inputs": [],
      "name": "isOwner",
      "outputs": [
        {
          "name": "",
          "type": "bool"
        }
      ],
      "payable": false,
      "stateMutability": "view",
      "type": "function"
    },
    {
      "constant": true,
      "inputs": [
        {
          "name": "s",
          "type": "string"
        }
      ],
      "name": "stringToUint",
      "outputs": [
        {
          "name": "result",
          "type": "uint256"
        }
      ],
      "payable": false,
      "stateMutability": "view",
      "type": "function"
    },
    {
      "constant": false,
      "inputs": [
        {
          "name": "betNumber",
          "type": "string"
        }
      ],
      "name": "getPlayerByBet",
      "outputs": [
        {
          "name": "",
          "type": "address[]"
        }
      ],
      "payable": false,
      "stateMutability": "nonpayable",
      "type": "function"
    },
    {
      "constant": false,
      "inputs": [],
      "name": "getBet",
      "outputs": [
        {
          "name": "",
          "type": "string"
        }
      ],
      "payable": false,
      "stateMutability": "nonpayable",
      "type": "function"
    }
  ],
  "bytecode": "0x60806040526000600a60006101000a81548160ff0219169083600281111561002357fe5b0217905550736f485c8bf6fc43ea212e93bbf8ce046c7f1cb4756000806101000a81548173ffffffffffffffffffffffffffffffffffffffff021916908373ffffffffffffffffffffffffffffffffffffffff16021790555033600560006101000a81548173ffffffffffffffffffffffffffffffffffffffff021916908373ffffffffffffffffffffffffffffffffffffffff160217905550613415806100cc6000396000f3006080604052600436106100fc576000357c0100000000000000000000000000000000000000000000000000000000900463ffffffff168063122ff3b8146101015780631b1ba52d1461012c5780631bd951551461019857806320835e8c1461021557806327dc297e146102a557806330e872391461031c578063382396ee1461038957806338bbfa50146103c257806356ca623e1461047f5780636540742f1461053b57806374030531146105665780638f32d59b146105c25780638f7eb130146105f1578063d936fbb51461061c578063e2eb41ff146106da578063ea35e80514610879578063f77e8b83146108d8578063ff6cd33e14610941575b600080fd5b34801561010d57600080fd5b50610116610970565b6040518082815260200191505060405180910390f35b34801561013857600080fd5b50610141610975565b6040518080602001828103825283818151815260200191508051906020019060200280838360005b83811015610184578082015181840152602081019050610169565b505050509050019250505060405180910390f35b3480156101a457600080fd5b506101ff600480360381019080803590602001908201803590602001908080601f0160208091040260200160405190810160405280939291908181526020018383808284378201915050505050509192919290505050610a03565b6040518082815260200191505060405180910390f35b34801561022157600080fd5b5061022a610ad5565b6040518080602001828103825283818151815260200191508051906020019080838360005b8381101561026a57808201518184015260208101905061024f565b50505050905090810190601f1680156102975780820380516001836020036101000a031916815260200191505b509250505060405180910390f35b3480156102b157600080fd5b5061031a6004803603810190808035600019169060200190929190803590602001908201803590602001908080601f0160208091040260200160405190810160405280939291908181526020018383808284378201915050505050509192919290505050610bb7565b005b34801561032857600080fd5b5061034760048036038101908080359060200190929190505050610ea9565b604051808273ffffffffffffffffffffffffffffffffffffffff1673ffffffffffffffffffffffffffffffffffffffff16815260200191505060405180910390f35b34801561039557600080fd5b5061039e610ee7565b604051808260028111156103ae57fe5b60ff16815260200191505060405180910390f35b3480156103ce57600080fd5b5061047d6004803603810190808035600019169060200190929190803590602001908201803590602001908080601f0160208091040260200160405190810160405280939291908181526020018383808284378201915050505050509192919290803590602001908201803590602001908080601f0160208091040260200160405190810160405280939291908181526020018383808284378201915050505050509192919290505050610efe565b005b34801561048b57600080fd5b506104c0600480360381019080803573ffffffffffffffffffffffffffffffffffffffff169060200190929190505050610f03565b6040518080602001828103825283818151815260200191508051906020019080838360005b838110156105005780820151818401526020810190506104e5565b50505050905090810190601f16801561052d5780820380516001836020036101000a031916815260200191505b509250505060405180910390f35b34801561054757600080fd5b50610550610fef565b6040518082815260200191505060405180910390f35b6105c0600480360381019080803590602001908201803590602001908080601f0160208091040260200160405190810160405280939291908181526020018383808284378201915050505050509192919290505050610ffb565b005b3480156105ce57600080fd5b506105d76114d9565b604051808215151515815260200191505060405180910390f35b3480156105fd57600080fd5b50610606611542565b6040518082815260200191505060405180910390f35b34801561062857600080fd5b50610683600480360381019080803590602001908201803590602001908080601f016020809104026020016040519081016040528093929190818152602001838380828437820191505050505050919291929050505061154f565b6040518080602001828103825283818151815260200191508051906020019060200280838360005b838110156106c65780820151818401526020810190506106ab565b505050509050019250505060405180910390f35b3480156106e657600080fd5b5061071b600480360381019080803573ffffffffffffffffffffffffffffffffffffffff169060200190929190505050611648565b6040518080602001851515151581526020018060200180602001848103845288818151815260200191508051906020019080838360005b8381101561076d578082015181840152602081019050610752565b50505050905090810190601f16801561079a5780820380516001836020036101000a031916815260200191505b50848103835286818151815260200191508051906020019080838360005b838110156107d35780820151818401526020810190506107b8565b50505050905090810190601f1680156108005780820380516001836020036101000a031916815260200191505b50848103825285818151815260200191508051906020019080838360005b8381101561083957808201518184015260208101905061081e565b50505050905090810190601f1680156108665780820380516001836020036101000a031916815260200191505b5097505050505050505060405180910390f35b61088161184d565b6040518080602001828103825283818151815260200191508051906020019060200280838360005b838110156108c45780820151818401526020810190506108a9565b505050509050019250505060405180910390f35b3480156108e457600080fd5b5061093f600480360381019080803590602001908201803590602001908080601f0160208091040260200160405190810160405280939291908181526020018383808284378201915050505050509192919290505050611cad565b005b34801561094d57600080fd5b50610956611f78565b604051808215151515815260200191505060405180910390f35b600481565b606060098054806020026020016040519081016040528092919081815260200182805480156109f957602002820191906000526020600020905b8160009054906101000a900473ffffffffffffffffffffffffffffffffffffffff1673ffffffffffffffffffffffffffffffffffffffff16815260200190600101908083116109af575b5050505050905090565b6000606060008084925060009350600091505b8251821015610acd578282815181101515610a2d57fe5b9060200101517f010000000000000000000000000000000000000000000000000000000000000090047f0100000000000000000000000000000000000000000000000000000000000000027f01000000000000000000000000000000000000000000000000000000000000009004905060308110158015610aaf575060398111155b15610ac05760308103600a85020193505b8180600101925050610a16565b505050919050565b6060600c60003373ffffffffffffffffffffffffffffffffffffffff1673ffffffffffffffffffffffffffffffffffffffff1681526020019081526020016000206003018054600181600116156101000203166002900480601f016020809104026020016040519081016040528092919081815260200182805460018160011615610100020316600290048015610bad5780601f10610b8257610100808354040283529160200191610bad565b820191906000526020600020905b815481529060010190602001808311610b9057829003601f168201915b5050505050905090565b7fcf34ef537ac33ee1ac626ca1587a0a7e8e51561e5514f8cb36afa1c5102b3bab816040518080602001828103825283818151815260200191508051906020019080838360005b83811015610c19578082015181840152602081019050610bfe565b50505050905090810190601f168015610c465780820380516001836020036101000a031916815260200191505b509250505060405180910390a1610c5b61201d565b73ffffffffffffffffffffffffffffffffffffffff163373ffffffffffffffffffffffffffffffffffffffff16141515610d23576040517f08c379a000000000000000000000000000000000000000000000000000000000815260040180806020018281038252602d8152602001807fd0add182d0be20d0bdd0b520d0bed180d0b0d0bad0bbd0bed0b2d181d0bad0b881526020017fd0b920d0b0d0b4d180d0b5d1810000000000000000000000000000000000000081525060400191505060405180910390fd5b7f5b585468a50caefc115da6903895bf32493edf75916a2485e6042c36ddeb219b81600b836040518082805190602001908083835b602083101515610d7d5780518252602082019150602081019050602083039250610d58565b6001836020036101000a0380198251168184511680821785525050505050509050019150509081526020016040518091039020604051808060200180602001838103835285818151815260200191508051906020019080838360005b83811015610df4578082015181840152602081019050610dd9565b50505050905090810190601f168015610e215780820380516001836020036101000a031916815260200191505b508381038252848181548152602001915080548015610e9557602002820191906000526020600020905b8160009054906101000a900473ffffffffffffffffffffffffffffffffffffffff1673ffffffffffffffffffffffffffffffffffffffff1681526020019060010190808311610e4b575b505094505050505060405180910390a15050565b600981815481101515610eb857fe5b906000526020600020016000915054906101000a900473ffffffffffffffffffffffffffffffffffffffff1681565b6000600a60009054906101000a900460ff16905090565b505050565b606080600060146040519080825280601f01601f191660200182016040528015610f3c5781602001602082028038833980820191505090505b509150600090505b6014811015610fe5578060130360080260020a8473ffffffffffffffffffffffffffffffffffffffff16811515610f7757fe5b047f0100000000000000000000000000000000000000000000000000000000000000028282815181101515610fa857fe5b9060200101907effffffffffffffffffffffffffffffffffffffffffffffffffffffffffffff1916908160001a9053508080600101915050610f44565b8192505050919050565b6702c68af0bb14000081565b6000600281111561100857fe5b600a60009054906101000a900460ff16600281111561102357fe5b1415156110e4576040517f08c379a00000000000000000000000000000000000000000000000000000000081526004018080602001828103825260548152602001807fd098d0b3d180d0b020d183d0b6d0b520d0bdd0b0d187d0b0d0bbd0b0d181d18c81526020017f2c20d0b2d18b20d0bdd0b520d0bcd0bed0b6d0b5d182d0b520d181d0b4d0b5d081526020017fbbd0b0d182d18c20d181d182d0b0d0b2d0bad18300000000000000000000000081525060600191505060405180910390fd5b60008060009150600090505b600980549050811015611180573373ffffffffffffffffffffffffffffffffffffffff1660098281548110151561112357fe5b9060005260206000200160009054906101000a900473ffffffffffffffffffffffffffffffffffffffff1673ffffffffffffffffffffffffffffffffffffffff1614156111735760019150611180565b80806001019150506110f0565b8115156111f5576040517f08c379a00000000000000000000000000000000000000000000000000000000081526004018080602001828103825260158152602001807fd092d18b20d0bdd0b520d0b220d0b8d0b3d180d0b5000000000000000000000081525060200191505060405180910390fd5b6702c68af0bb1400003411151561129a576040517f08c379a00000000000000000000000000000000000000000000000000000000081526004018080602001828103825260398152602001807fd092d0b0d188d0b020d181d182d0b0d0b2d0bad0b020d0bcd0b5d0bdd18cd18881526020017fd0b520d0bcd0b8d0bdd0b8d0bcd0b0d0bbd18cd0bdd0bed0b90000000000000081525060400191505060405180910390fd5b7fcf34ef537ac33ee1ac626ca1587a0a7e8e51561e5514f8cb36afa1c5102b3bab836040518080602001828103825283818151815260200191508051906020019080838360005b838110156112fc5780820151818401526020810190506112e1565b50505050905090810190601f1680156113295780820380516001836020036101000a031916815260200191505b509250505060405180910390a1600b836040518082805190602001908083835b60208310151561136e5780518252602082019150602081019050602083039250611349565b6001836020036101000a03801982511681845116808217855250505050505090500191505090815260200160405180910390203390806001815401808255809150509060018203906000526020600020016000909192909190916101000a81548173ffffffffffffffffffffffffffffffffffffffff021916908373ffffffffffffffffffffffffffffffffffffffff16021790555050346008540160088190555082600c60003373ffffffffffffffffffffffffffffffffffffffff1673ffffffffffffffffffffffffffffffffffffffff1681526020019081526020016000206003019080519060200190611466929190613220565b506001600c60003373ffffffffffffffffffffffffffffffffffffffff1673ffffffffffffffffffffffffffffffffffffffff16815260200190815260200160002060010160006101000a81548160ff021916908315150217905550600760008154809291906001019190505550505050565b6000600560009054906101000a900473ffffffffffffffffffffffffffffffffffffffff1673ffffffffffffffffffffffffffffffffffffffff163373ffffffffffffffffffffffffffffffffffffffff16141561153a576001905061153f565b600090505b90565b6000600980549050905090565b6060600b826040518082805190602001908083835b6020831015156115895780518252602082019150602081019050602083039250611564565b6001836020036101000a038019825116818451168082178552505050505050905001915050908152602001604051809103902080548060200260200160405190810160405280929190818152602001828054801561163c57602002820191906000526020600020905b8160009054906101000a900473ffffffffffffffffffffffffffffffffffffffff1673ffffffffffffffffffffffffffffffffffffffff16815260200190600101908083116115f2575b50505050509050919050565b600c602052806000526040600020600091509050806000018054600181600116156101000203166002900480601f0160208091040260200160405190810160405280929190818152602001828054600181600116156101000203166002900480156116f45780601f106116c9576101008083540402835291602001916116f4565b820191906000526020600020905b8154815290600101906020018083116116d757829003601f168201915b5050505050908060010160009054906101000a900460ff1690806002018054600181600116156101000203166002900480601f0160208091040260200160405190810160405280929190818152602001828054600181600116156101000203166002900480156117a55780601f1061177a576101008083540402835291602001916117a5565b820191906000526020600020905b81548152906001019060200180831161178857829003601f168201915b505050505090806003018054600181600116156101000203166002900480601f0160208091040260200160405190810160405280929190818152602001828054600181600116156101000203166002900480156118435780601f1061181857610100808354040283529160200191611843565b820191906000526020600020905b81548152906001019060200180831161182657829003601f168201915b5050505050905084565b60603373ffffffffffffffffffffffffffffffffffffffff16600560009054906101000a900473ffffffffffffffffffffffffffffffffffffffff1673ffffffffffffffffffffffffffffffffffffffff1614151561193a576040517f08c379a000000000000000000000000000000000000000000000000000000000815260040180806020018281038252602d8152602001807fd092d18b20d0bdd0b520d0b2d0bbd0b0d0b4d0b5d0bbd0b5d18620d0bad0bed081526020017fbdd182d180d0b0d0bad182d0b00000000000000000000000000000000000000081525060400191505060405180910390fd5b6009805490506007541415156119de576040517f08c379a00000000000000000000000000000000000000000000000000000000081526004018080602001828103825260308152602001807fd09dd0b520d0b2d181d0b520d0bbd18ed0b4d0b820d181d0b4d0b5d0bbd0b0d081526020017fbbd0b820d181d182d0b0d0b2d0bad1830000000000000000000000000000000081525060400191505060405180910390fd5b7f4cf2e2dcdeacb2322843921968cb0e6a97a686594cb0a4f29abb65a7ed65195260405160405180910390a16001600a60006101000a81548160ff02191690836002811115611a2957fe5b0217905550600060098054905014151515611aac576040517f08c379a00000000000000000000000000000000000000000000000000000000081526004018080602001828103825260178152602001807fd09dd0b5d182d18320d0b8d0b3d180d0bed0bad0bed0b200000000000000000081525060200191505060405180910390fd5b34611aeb6040805190810160405280600381526020017f55524c000000000000000000000000000000000000000000000000000000000081525061237b565b101515611b86576040517f08c379a000000000000000000000000000000000000000000000000000000000815260040180806020018281038252603f8152602001807fd09dd0b5d0b4d0bed181d182d0b0d182d0bed187d0bdd0be20d181d180d0b5d081526020017fb4d181d182d0b220d0bdd0b020d0bad0bed0bdd182d180d0b0d0bad182d0b50081525060400191505060405180910390fd5b611c616040805190810160405280600381526020017f55524c0000000000000000000000000000000000000000000000000000000000815250608060405190810160405280604381526020017f6a736f6e2868747470733a2f2f6170692e72616e646f6d2e6f72672f6a736f6e81526020017f2d7270632f312f696e766f6b65292e726573756c742e72616e646f6d2e64617481526020017f612e30000000000000000000000000000000000000000000000000000000000081525060e06040519081016040528060a4815260200161334660a4913961274b565b506002600a60006101000a81548160ff02191690836002811115611c8157fe5b02179055506000600a60006101000a81548160ff02191690836002811115611ca557fe5b021790555090565b600460098054905011151515611d2b576040517f08c379a000000000000000000000000000000000000000000000000000000000815260040180806020018281038252601c8152602001807fd09cd0b5d181d18220d0b1d0bed0bbd18cd188d0b520d0bdd0b5d1820000000081525060200191505060405180910390fd5b60093390806001815401808255809150509060018203906000526020600020016000909192909190916101000a81548173ffffffffffffffffffffffffffffffffffffffff021916908373ffffffffffffffffffffffffffffffffffffffff160217905550506080604051908101604052808281526020016000151581526020016040805190810160405280600181526020017f300000000000000000000000000000000000000000000000000000000000000081525081526020016040805190810160405280600181526020017f3000000000000000000000000000000000000000000000000000000000000000815250815250600c60003373ffffffffffffffffffffffffffffffffffffffff1673ffffffffffffffffffffffffffffffffffffffff1681526020019081526020016000206000820151816000019080519060200190611e7b9291906132a0565b5060208201518160010160006101000a81548160ff0219169083151502179055506040820151816002019080519060200190611eb89291906132a0565b506060820151816003019080519060200190611ed59291906132a0565b509050507fee5af66b5a8d17fbf8319bce78c9802f7639167eb44d1f0efab404d1256c2108816040518080602001828103825283818151815260200191508051906020019080838360005b83811015611f3b578082015181840152602081019050611f20565b50505050905090810190601f168015611f685780820380516001836020036101000a031916815260200191505b509250505060405180910390a150565b6000806000809150600090505b600980549050811015612015573373ffffffffffffffffffffffffffffffffffffffff16600982815481101515611fb857fe5b9060005260206000200160009054906101000a900473ffffffffffffffffffffffffffffffffffffffff1673ffffffffffffffffffffffffffffffffffffffff1614156120085760019150612015565b8080600101915050611f85565b819250505090565b6000806000809054906101000a900473ffffffffffffffffffffffffffffffffffffffff1673ffffffffffffffffffffffffffffffffffffffff16148061208d5750600061208b6000809054906101000a900473ffffffffffffffffffffffffffffffffffffffff16612d5b565b145b1561209e5761209c6000612d66565b505b6000809054906101000a900473ffffffffffffffffffffffffffffffffffffffff1673ffffffffffffffffffffffffffffffffffffffff166338cc48316040518163ffffffff167c0100000000000000000000000000000000000000000000000000000000028152600401602060405180830381600087803b15801561212357600080fd5b505af1158015612137573d6000803e3d6000fd5b505050506040513d602081101561214d57600080fd5b810190808051906020019092919050505073ffffffffffffffffffffffffffffffffffffffff16600160009054906101000a900473ffffffffffffffffffffffffffffffffffffffff1673ffffffffffffffffffffffffffffffffffffffff161415156122b5576000809054906101000a900473ffffffffffffffffffffffffffffffffffffffff1673ffffffffffffffffffffffffffffffffffffffff166338cc48316040518163ffffffff167c0100000000000000000000000000000000000000000000000000000000028152600401602060405180830381600087803b15801561223957600080fd5b505af115801561224d573d6000803e3d6000fd5b505050506040513d602081101561226357600080fd5b8101908080519060200190929190505050600160006101000a81548173ffffffffffffffffffffffffffffffffffffffff021916908373ffffffffffffffffffffffffffffffffffffffff1602179055505b600160009054906101000a900473ffffffffffffffffffffffffffffffffffffffff1673ffffffffffffffffffffffffffffffffffffffff1663c281d19e6040518163ffffffff167c0100000000000000000000000000000000000000000000000000000000028152600401602060405180830381600087803b15801561233b57600080fd5b505af115801561234f573d6000803e3d6000fd5b505050506040513d602081101561236557600080fd5b8101908080519060200190929190505050905090565b6000806000809054906101000a900473ffffffffffffffffffffffffffffffffffffffff1673ffffffffffffffffffffffffffffffffffffffff1614806123eb575060006123e96000809054906101000a900473ffffffffffffffffffffffffffffffffffffffff16612d5b565b145b156123fc576123fa6000612d66565b505b6000809054906101000a900473ffffffffffffffffffffffffffffffffffffffff1673ffffffffffffffffffffffffffffffffffffffff166338cc48316040518163ffffffff167c0100000000000000000000000000000000000000000000000000000000028152600401602060405180830381600087803b15801561248157600080fd5b505af1158015612495573d6000803e3d6000fd5b505050506040513d60208110156124ab57600080fd5b810190808051906020019092919050505073ffffffffffffffffffffffffffffffffffffffff16600160009054906101000a900473ffffffffffffffffffffffffffffffffffffffff1673ffffffffffffffffffffffffffffffffffffffff16141515612613576000809054906101000a900473ffffffffffffffffffffffffffffffffffffffff1673ffffffffffffffffffffffffffffffffffffffff166338cc48316040518163ffffffff167c0100000000000000000000000000000000000000000000000000000000028152600401602060405180830381600087803b15801561259757600080fd5b505af11580156125ab573d6000803e3d6000fd5b505050506040513d60208110156125c157600080fd5b8101908080519060200190929190505050600160006101000a81548173ffffffffffffffffffffffffffffffffffffffff021916908373ffffffffffffffffffffffffffffffffffffffff1602179055505b600160009054906101000a900473ffffffffffffffffffffffffffffffffffffffff1673ffffffffffffffffffffffffffffffffffffffff1663524f3889836040518263ffffffff167c01000000000000000000000000000000000000000000000000000000000281526004018080602001828103825283818151815260200191508051906020019080838360005b838110156126bd5780820151818401526020810190506126a2565b50505050905090810190601f1680156126ea5780820380516001836020036101000a031916815260200191505b5092505050602060405180830381600087803b15801561270957600080fd5b505af115801561271d573d6000803e3d6000fd5b505050506040513d602081101561273357600080fd5b81019080805190602001909291905050509050919050565b60008060008060009054906101000a900473ffffffffffffffffffffffffffffffffffffffff1673ffffffffffffffffffffffffffffffffffffffff1614806127bd575060006127bb6000809054906101000a900473ffffffffffffffffffffffffffffffffffffffff16612d5b565b145b156127ce576127cc6000612d66565b505b6000809054906101000a900473ffffffffffffffffffffffffffffffffffffffff1673ffffffffffffffffffffffffffffffffffffffff166338cc48316040518163ffffffff167c0100000000000000000000000000000000000000000000000000000000028152600401602060405180830381600087803b15801561285357600080fd5b505af1158015612867573d6000803e3d6000fd5b505050506040513d602081101561287d57600080fd5b810190808051906020019092919050505073ffffffffffffffffffffffffffffffffffffffff16600160009054906101000a900473ffffffffffffffffffffffffffffffffffffffff1673ffffffffffffffffffffffffffffffffffffffff161415156129e5576000809054906101000a900473ffffffffffffffffffffffffffffffffffffffff1673ffffffffffffffffffffffffffffffffffffffff166338cc48316040518163ffffffff167c0100000000000000000000000000000000000000000000000000000000028152600401602060405180830381600087803b15801561296957600080fd5b505af115801561297d573d6000803e3d6000fd5b505050506040513d602081101561299357600080fd5b8101908080519060200190929190505050600160006101000a81548173ffffffffffffffffffffffffffffffffffffffff021916908373ffffffffffffffffffffffffffffffffffffffff1602179055505b600160009054906101000a900473ffffffffffffffffffffffffffffffffffffffff1673ffffffffffffffffffffffffffffffffffffffff1663524f3889866040518263ffffffff167c01000000000000000000000000000000000000000000000000000000000281526004018080602001828103825283818151815260200191508051906020019080838360005b83811015612a8f578082015181840152602081019050612a74565b50505050905090810190601f168015612abc5780820380516001836020036101000a031916815260200191505b5092505050602060405180830381600087803b158015612adb57600080fd5b505af1158015612aef573d6000803e3d6000fd5b505050506040513d6020811015612b0557600080fd5b8101908080519060200190929190505050905062030d403a02670de0b6b3a764000001811115612b3b5760006001029150612d53565b600160009054906101000a900473ffffffffffffffffffffffffffffffffffffffff1673ffffffffffffffffffffffffffffffffffffffff1663772286598260008888886040518663ffffffff167c010000000000000000000000000000000000000000000000000000000002815260040180858152602001806020018060200180602001848103845287818151815260200191508051906020019080838360005b83811015612bf8578082015181840152602081019050612bdd565b50505050905090810190601f168015612c255780820380516001836020036101000a031916815260200191505b50848103835286818151815260200191508051906020019080838360005b83811015612c5e578082015181840152602081019050612c43565b50505050905090810190601f168015612c8b5780820380516001836020036101000a031916815260200191505b50848103825285818151815260200191508051906020019080838360005b83811015612cc4578082015181840152602081019050612ca9565b50505050905090810190601f168015612cf15780820380516001836020036101000a031916815260200191505b509750505050505050506020604051808303818588803b158015612d1457600080fd5b505af1158015612d28573d6000803e3d6000fd5b50505050506040513d6020811015612d3f57600080fd5b810190808051906020019092919050505091505b509392505050565b6000813b9050919050565b6000612d70612d77565b9050919050565b600080612d97731d3b2638a7cc9f2cb3d298a3da7a90b67e5506ed612d5b565b1115612e3857731d3b2638a7cc9f2cb3d298a3da7a90b67e5506ed6000806101000a81548173ffffffffffffffffffffffffffffffffffffffff021916908373ffffffffffffffffffffffffffffffffffffffff160217905550612e2f6040805190810160405280600b81526020017f6574685f6d61696e6e6574000000000000000000000000000000000000000000815250613206565b60019050613203565b6000612e5773c03a2615d5efaf5f49f60b7bb6583eaec212fdf1612d5b565b1115612ef85773c03a2615d5efaf5f49f60b7bb6583eaec212fdf16000806101000a81548173ffffffffffffffffffffffffffffffffffffffff021916908373ffffffffffffffffffffffffffffffffffffffff160217905550612eef6040805190810160405280600c81526020017f6574685f726f707374656e330000000000000000000000000000000000000000815250613206565b60019050613203565b6000612f1773b7a07bcf2ba2f2703b24c0691b5278999c59ac7e612d5b565b1115612fb85773b7a07bcf2ba2f2703b24c0691b5278999c59ac7e6000806101000a81548173ffffffffffffffffffffffffffffffffffffffff021916908373ffffffffffffffffffffffffffffffffffffffff160217905550612faf6040805190810160405280600981526020017f6574685f6b6f76616e0000000000000000000000000000000000000000000000815250613206565b60019050613203565b6000612fd773146500cfd35b22e4a392fe0adc06de1a1368ed48612d5b565b11156130785773146500cfd35b22e4a392fe0adc06de1a1368ed486000806101000a81548173ffffffffffffffffffffffffffffffffffffffff021916908373ffffffffffffffffffffffffffffffffffffffff16021790555061306f6040805190810160405280600b81526020017f6574685f72696e6b656279000000000000000000000000000000000000000000815250613206565b60019050613203565b6000613097736f485c8bf6fc43ea212e93bbf8ce046c7f1cb475612d5b565b11156130fa57736f485c8bf6fc43ea212e93bbf8ce046c7f1cb4756000806101000a81548173ffffffffffffffffffffffffffffffffffffffff021916908373ffffffffffffffffffffffffffffffffffffffff16021790555060019050613203565b60006131197320e12a1f859b3feae5fb2a0a32c18f5a65555bbf612d5b565b111561317c577320e12a1f859b3feae5fb2a0a32c18f5a65555bbf6000806101000a81548173ffffffffffffffffffffffffffffffffffffffff021916908373ffffffffffffffffffffffffffffffffffffffff16021790555060019050613203565b600061319b7351efaf4c8b3c9afbd5ab9f4bbc82784ab6ef8faa612d5b565b11156131fe577351efaf4c8b3c9afbd5ab9f4bbc82784ab6ef8faa6000806101000a81548173ffffffffffffffffffffffffffffffffffffffff021916908373ffffffffffffffffffffffffffffffffffffffff16021790555060019050613203565b600090505b90565b806002908051906020019061321c929190613220565b5050565b828054600181600116156101000203166002900490600052602060002090601f016020900481019282601f1061326157805160ff191683800117855561328f565b8280016001018555821561328f579182015b8281111561328e578251825591602001919060010190613273565b5b50905061329c9190613320565b5090565b828054600181600116156101000203166002900490600052602060002090601f016020900481019282601f106132e157805160ff191683800117855561330f565b8280016001018555821561330f579182015b8281111561330e5782518255916020019190600101906132f3565b5b50905061331c9190613320565b5090565b61334291905b8082111561333e576000816000905550600101613326565b5090565b9056000a7b226a736f6e727063223a22322e30222c226d6574686f64223a2267656e6572617465496e746567657273222c22706172616d73223a7b226170694b6579223a2263346333356635612d353634312d343334342d396436302d306332633631336432353035222c226e223a312c226d696e223a312c226d6178223a31302c227265706c6163656d656e74223a747275652c2262617365223a31307d2c226964223a317da165627a7a723058207865e4119fb9a67b197c0396264e979a515aaa590a5eaf17c7bfe01b932d22e10029",
  "source": "pragma solidity ^0.4.24;\nimport  \"installed_contracts/oraclize-api/contracts/usingOraclize.sol\";\n\ncontract Rullete is usingOraclize {\n\n  address owner;\n\n  string winNumber;\n\n  uint numberOfBets;\n  uint pool;\n\n  uint public constant MAX_PLAYERS_COUNT = 4;\n  uint public constant MIN_BET = 200 finney;\n\n  address[] public playersId;\n\n  struct Player {\n    string name;\n    bool voted;\n    string bet;\n    string betTo;\n  }\n\n  enum GameStatuses { Waiting, Started, Ended }\n\n  GameStatuses status = GameStatuses.Waiting;\n\n  mapping(string => address[]) betToPlayers;\n\n  mapping(address => Player) public players;\n\n  constructor() public payable {\n    OAR = OraclizeAddrResolverI(0x6f485C8BF6fc43eA212E93BBF8ce046C7f1cb475);\n    owner = msg.sender;\n  }\n\n  // Modifiers starts\n  modifier onlyOwner() {\n    require(\n        owner == msg.sender, \n        \"   \"\n    );\n    _;\n  }\n\n  modifier onlyWaiting() {\n    require(\n      status == GameStatuses.Waiting, \n      \"  ,     \"\n    );\n\n    _;\n  }\n\n  modifier onlyPlayer() {\n    bool isPlayer = false;\n\n    for(uint i = 0; i < playersId.length; i++) {\n      if(playersId[i] == msg.sender) {\n        isPlayer = true;\n        break;\n      }\n    }\n\n    require(\n      isPlayer,\n      \"   \"\n     );\n\n     _;\n  }\n\n  modifier allPlayersDidBets() {\n    require(\n      numberOfBets == playersId.length, \n      \"    \"\n    );\n\n    _;\n  }\n\n  modifier minBet() {\n    require(\n      msg.value > MIN_BET, \n      \"   \"\n    );\n\n    _;\n  }\n\n  //Modifiers ends\n\n  event PlayerEnter(string name);\n  event GameEnd(string winNumber, address[] winners);\n  event GameStart();\n  event Log(string currentBalance);\n\n  function addPlayer(string name) public {\n    require(\n      playersId.length <= MAX_PLAYERS_COUNT,\n      \"  \"\n    );\n    \n    playersId.push(msg.sender);\n    players[msg.sender] = Player(name, false, \"0\", \"0\");\n\n    emit PlayerEnter(name);\n  }\n\n function __callback(\n    bytes32 _queryId,\n    string _result\n  ) {\n    emit Log(_result);\n    // Checks that the sender of this callback was in fact oraclize\n    require(msg.sender == oraclize_cbAddress(), \"   \");\n\n    emit GameEnd(_result, betToPlayers[_result]);\n  }\n    \n  function calculateWinner() \n    public\n    payable\n    onlyOwner\n    allPlayersDidBets\n    returns(address[]) {\n    \n    emit GameStart();\n    status = GameStatuses.Started;\n\n    require(\n      playersId.length != 0, \n      \" \"\n    );\n\n    require(\n      oraclize_getPrice(\"URL\") < msg.value,\n      \"   \"\n    );\n\n    oraclize_query(\"URL\", \"json(https://api.random.org/json-rpc/1/invoke).result.random.data.0\", '\\n{\"jsonrpc\":\"2.0\",\"method\":\"generateIntegers\",\"params\":{\"apiKey\":\"c4c35f5a-5641-4344-9d60-0c2c613d2505\",\"n\":1,\"min\":1,\"max\":10,\"replacement\":true,\"base\":10},\"id\":1}');\n\n    status = GameStatuses.Ended;\n\n    status = GameStatuses.Waiting;\n  }\n\n  function toString(address x) returns (string) {\n    bytes memory b = new bytes(20);\n    for (uint i = 0; i < 20; i++)\n        b[i] = byte(uint8(uint(x) / (2**(8*(19 - i)))));\n    return string(b);\n  }\n\n  function bet(string _betNumber) \n    public\n    payable \n    onlyWaiting \n    onlyPlayer \n    minBet {\n\n    emit Log(_betNumber);\n    betToPlayers[_betNumber].push(msg.sender);\n    \n    pool = pool + msg.value;\n\n    players[msg.sender].betTo = _betNumber;\n    players[msg.sender].voted = true;\n\n    numberOfBets++;\n  }\n  \n  function getPalyersCount() public view returns(uint){\n    return playersId.length;\n  }\n  \n  function getPlayersIds() public view returns(address[]) {\n    return playersId;\n  }\n\n  function checkAuth() public view returns(bool) {\n    bool isPlayer = false;\n\n    for(uint i = 0; i < playersId.length; i++) {\n      if(playersId[i] == msg.sender) {\n        isPlayer = true;\n        break;\n      }\n    }\n\n    return isPlayer;\n  }\n\n  function getGameStatus() public view returns(GameStatuses) {\n    return status;\n  }\n\n  function isOwner() public view returns(bool) {\n    if(msg.sender == owner) {\n      return true;\n    } else {\n      return false;\n    }\n  }\n\n  function stringToUint(string s) constant returns (uint result) {\n    bytes memory b = bytes(s);\n    uint i;\n    result = 0;\n    for (i = 0; i < b.length; i++) {\n        uint c = uint(b[i]);\n        if (c >= 48 && c <= 57) {\n            result = result * 10 + (c - 48);\n        }\n    }\n  }\n\n  function getPlayerByBet(string betNumber) returns(address[]) {\n    return betToPlayers[betNumber];\n  }\n\n  function getBet() returns(string) {\n    return players[msg.sender].betTo;\n  }\n\n}\n",
  "sourcePath": "C:\\Users\\I\\Desktop\\projects\\Ethir\\Chairity\\contracts\\Rullete.sol",
  "compiler": {
    "name": "solc",
    "version": "0.4.24+commit.e67f0147.Emscripten.clang"
  },
  "schemaVersion": "2.0.1",
  "updatedAt": "2018-08-14T14:57:25.360Z"
}