{
  "contractName": "Rullete",
  "abi": [
    {
      "inputs": [],
      "payable": true,
      "stateMutability": "payable",
      "type": "constructor"
    },
    {
      "anonymous": false,
      "inputs": [
        {
          "indexed": false,
          "name": "",
          "type": "string"
        }
      ],
      "name": "Log",
      "type": "event"
    },
    {
      "constant": false,
      "inputs": [
        {
          "name": "isWinner",
          "type": "bool"
        },
        {
          "name": "profit",
          "type": "uint256"
        }
      ],
      "name": "transferToWinner",
      "outputs": [],
      "payable": true,
      "stateMutability": "payable",
      "type": "function"
    },
    {
      "constant": false,
      "inputs": [],
      "name": "sendMoney",
      "outputs": [],
      "payable": false,
      "stateMutability": "nonpayable",
      "type": "function"
    }
  ],
  "bytecode": "0x6080604052336000806101000a81548173ffffffffffffffffffffffffffffffffffffffff021916908373ffffffffffffffffffffffffffffffffffffffff160217905550610247806100536000396000f30060806040526004361061004c576000357c0100000000000000000000000000000000000000000000000000000000900463ffffffff168063446893b714610051578063cbedbf5a1461007d575b600080fd5b61007b60048036038101908080351515906020019092919080359060200190929190505050610094565b005b34801561008957600080fd5b50610092610155565b005b81156100e8573373ffffffffffffffffffffffffffffffffffffffff166108fc8234019081150290604051600060405180830381858888f193505050501580156100e2573d6000803e3d6000fd5b50610151565b6000809054906101000a900473ffffffffffffffffffffffffffffffffffffffff1673ffffffffffffffffffffffffffffffffffffffff166108fc349081150290604051600060405180830381858888f1935050505015801561014f573d6000803e3d6000fd5b505b5050565b6000809054906101000a900473ffffffffffffffffffffffffffffffffffffffff1673ffffffffffffffffffffffffffffffffffffffff163373ffffffffffffffffffffffffffffffffffffffff16141515610219576040517f08c379a00000000000000000000000000000000000000000000000000000000081526004018080602001828103825260208152602001807f596f7520617265206e6f7420616e206f776e6572206f6620636f6e747261637481525060200191505060405180910390fd5b5600a165627a7a72305820e396a5fb748a5e266de8dbf374843930b3716fa1168b5057fd62b38e5b0fe11a0029",
  "source": "pragma solidity ^0.4.24;\r\n\r\ncontract Rullete {\r\n\r\n    address owner;\r\n\r\n    event Log(string);\r\n\r\n    constructor() payable {\r\n        owner = msg.sender;\r\n    }\r\n\r\n    modifier onlyOwner() {\r\n        require(\r\n            msg.sender == owner, \r\n            \"You are not an owner of contract\"\r\n        );\r\n\r\n        _;\r\n    }\r\n\r\n    function transferToWinner(bool isWinner, uint profit) public payable {\r\n        if(isWinner) {\r\n            msg.sender.transfer(msg.value + profit);\r\n        } else {\r\n            owner.transfer(msg.value);\r\n        }\r\n    }\r\n\r\n    function sendMoney() public onlyOwner {\r\n    \r\n    } \r\n\r\n}\r\n",
  "sourcePath": "C:\\Users\\I\\Desktop\\projects\\Ethir\\Casino\\CasinoEthter\\contracts\\Rullete.sol",
  "compiler": {
    "name": "solc",
    "version": "0.4.24+commit.e67f0147.Emscripten.clang"
  },
  "schemaVersion": "2.0.1",
  "updatedAt": "2018-08-15T15:28:49.749Z"
}